:020000040000FA
:100000000C9462000C948A000C948A000C948A0070
:100010000C948A000C948A000C948A000C948A0038
:100020000C948A000C948A000C948A000C948A0028
:100030000C948A000C948A000C948A000C948A0018
:100040000C9447030C948A000C94B7030C9491030E
:100050000C948A000C948A000C948A000C948A00F8
:100060000C948A000C948A000000000024002700F1
:100070002A0000000000250028002B0000000000DE
:1000800023002600290004040404040404040202DA
:100090000202020203030303030301020408102007
:1000A0004080010204081020010204081020000012
:1000B0000008000201000003040700000000000027
:1000C0000000E90311241FBECFEFD8E0DEBFCDBF93
:1000D00011E0A0E0B1E0EEEBF3E102C005900D927B
:1000E000A037B107D9F722E0A0E7B1E001C01D9227
:1000F000AB32B207E1F710E0C2E6D0E004C02197CE
:10010000FE010E94B208C136D107C9F70E94280437
:100110000C94DD090C940000833081F028F48130C8
:1001200099F08230A9F008958730A9F08830C9F09D
:100130008430B1F4809180008F7D03C08091800075
:100140008F7780938000089584B58F7784BD08955C
:1001500084B58F7DFBCF8091B0008F778093B00006
:1001600008958091B0008F7DF9CFCF93DF93282F32
:1001700030E0F901E255FF4F8491F901E656FF4F57
:10018000D491F901EA57FF4FC491CC23A1F081111A
:100190000E948C00EC2FF0E0EE0FFF1FE458FF4FA1
:1001A000A591B491EC91ED2381E090E009F480E019
:1001B000DF91CF91089580E090E0FACF1F93CF9325
:1001C000DF93282F30E0F901E255FF4F8491F901C8
:1001D000E656FF4FD491F901EA57FF4FC491CC2363
:1001E000A9F0162F81110E948C00EC2FF0E0EE0F89
:1001F000FF1FEE58FF4FA591B4918FB7F894EC9183
:10020000111108C0D095DE23DC938FBFDF91CF9111
:100210001F910895DE2BF8CF3FB7F89480917901B4
:1002200090917A01A0917B01B0917C0126B5A89BA9
:1002300005C02F3F19F00196A11DB11D3FBFBA2F78
:10024000A92F982F8827BC01CD01620F711D811D38
:10025000911D42E0660F771F881F991F4A95D1F7BD
:1002600008958F929F92AF92BF92CF92DF92EF92BA
:10027000FF926B017C010E940C014B015C01C114D7
:10028000D104E104F104B9F00E940C016819790964
:100290008A099B09683E73408105910580F321E03E
:1002A000C21AD108E108F10888EE880E83E0981E92
:1002B000A11CB11CE4CFFF90EF90DF90CF90BF90D6
:1002C000AF909F908F900895AF92BF92CF92DF92A0
:1002D000EF92FF920F931F93CF93DF936C017B01FB
:1002E0008B01040F151FEB015E01AE18BF08C0178C
:1002F000D10759F06991D601ED91FC910190F081FF
:10030000E02DC6010995892B79F7C501DF91CF91C1
:100310001F910F91FF90EF90DF90CF90BF90AF9023
:100320000895FC01538D448D252F30E0842F90E0FB
:10033000821B930B541710F0CF96089501970895E0
:10034000FC01918D828D981761F0A28DAE0FBF2FA9
:10035000B11D5D968C91928D9F5F9F73928F90E0FF
:1003600008958FEF9FEF0895FC01918D828D98176E
:1003700031F0828DE80FF11D858D90E008958FEFAB
:100380009FEF0895FC01918D228D892F90E0805C74
:100390009F4F821B91098F73992708958DE791E0F4
:1003A0000E94C20121E0892B09F420E0822F0895E8
:1003B00080E090E0892B29F00E94CE0181110C94FD
:1003C00000000895FC01A48DA80FB92FB11DA35AF8
:1003D000BF4F2C91848D90E001968F739927848F65
:1003E000A689B7892C93A089B1898C918370806488
:1003F0008C93938D848D981306C00288F389E02D29
:1004000080818F7D80830895EF92FF920F931F93D9
:10041000CF93DF93EC0181E0888F9B8D8C8D9813B7
:100420001AC0E889F989808185FF15C09FB7F894C3
:10043000EE89FF896083E889F9898081837080640F
:1004400080839FBF81E090E0DF91CF911F910F915A
:10045000FF90EF900895F62E0B8D10E00F5F1F4F69
:100460000F731127E02E8C8D8E110CC00FB607FC78
:10047000FACFE889F989808185FFF5CFCE010E9406
:10048000E201F1CFEB8DEC0FFD2FF11DE35AFF4F91
:10049000F0829FB7F8940B8FEA89FB898081806294
:1004A000CFCFCF93DF93EC01888D8823B9F0AA8951
:1004B000BB89E889F9898C9185FD03C0808186FD1F
:1004C0000DC00FB607FCF7CF8C9185FFF2CF80816E
:1004D00085FFEDCFCE010E94E201E9CFDF91CF9100
:1004E00008950895FC0101900020E9F73197AF01CC
:1004F000481B590BBC018DE791E00C9464018F926D
:100500009F92AF92BF920F931F93CF93DF93CDB77C
:10051000DEB7A1970FB6F894DEBF0FBECDBF19A20C
:10052000423008F44AE08E010F5D1F4F842E912C5B
:10053000B12CA12CA50194010E947108E62FB901EC
:10054000CA01EA30F4F4E05DD801EE938D01232B6B
:10055000242B252B79F790E080E0109719F0CD013E
:100560000E947202A1960FB6F894DEBF0FBECDBFF7
:10057000DF91CF911F910F91BF90AF909F908F907F
:100580000895E95CE1CFFF920F931F93CF93DF9320
:10059000F82E062FC7E0D0E010E061E0802F0E9427
:1005A000DE008F2D0E94B5000C2E01C0880F0A942A
:1005B000EAF7182B60E0802F0E94DE00219768F791
:1005C000812FDF91CF911F910F91FF900895EF92AE
:1005D000FF920F931F93CF93DF9380911D020E9490
:1005E000B500892B31F060E070E0CB010E94310151
:1005F000F4CFDFB7F89460911C0280911D020E9435
:10060000C302082F60911C0280911D020E94C30248
:10061000C82F60911C0280911D020E94C302182FF6
:10062000F12CE12C80911E028E151F0479F070F0E0
:1006300061E080911C020E94DE0060E080911C025B
:100640000E94DE008FEFE81AF80AECCFDFBF6C2FB4
:1006500070E090E080E0982F872F762F6627802B20
:10066000612B000F000B10E030E020E0302F22273C
:1006700011270027602B712B822B932BDF91CF91B9
:100680001F910F91FF90EF9008950C9454091F92C1
:100690000F920FB60F9211242F933F938F939F9336
:1006A000AF93BF938091750190917601A0917701EE
:1006B000B09178013091740123E0230F2D3758F564
:1006C0000196A11DB11D2093740180937501909333
:1006D0007601A0937701B093780180917901909190
:1006E0007A01A0917B01B0917C010196A11DB11D01
:1006F0008093790190937A01A0937B01B0937C0160
:10070000BF91AF919F918F913F912F910F900FBE0D
:100710000F901F90189526E8230F0296A11DB11D7A
:10072000D2CF1F920F920FB60F9211242F933F93A7
:100730004F935F936F937F938F939F93AF93BF93E9
:10074000EF93FF938DE791E00E94E201FF91EF911B
:10075000BF91AF919F918F917F916F915F914F91D9
:100760003F912F910F900FBE0F901F9018951F92E1
:100770000F920FB60F9211242F938F939F93EF93A5
:10078000FF93E0918D01F0918E018081E0919301C2
:10079000F091940182FD1BC09081809196018F5F42
:1007A0008F7320919701821741F0E0919601F0E05C
:1007B000E358FE4F958F80939601FF91EF919F91A3
:1007C0008F912F910F900FBE0F901F9018958081E1
:1007D000F4CFEDE7F1E01382128288EE93E0A0E01F
:1007E000B0E084839583A683B7838AE091E0918308
:1007F000808385EC90E09587848784EC90E09787F0
:10080000868780EC90E0918B808B81EC90E0938BDD
:10081000828B82EC90E0958B848B86EC90E0978BBA
:10082000868B118E128E138E148EEAE1F2E08CE12B
:1008300091E091838083158216821782108680E072
:1008400090E0A0E8BFE381879287A387B4870895EB
:10085000789484B5826084BD84B5816084BD85B59B
:10086000826085BD85B5816085BD80916E008160A7
:1008700080936E001092810080918100826080934D
:10088000810080918100816080938100809180004F
:100890008160809380008091B10084608093B1007A
:1008A0008091B00081608093B00080917A00846074
:1008B00080937A0080917A00826080937A008091A0
:1008C0007A00816080937A0080917A0080688093BA
:1008D0007A001092C100E0918D01F0918E0192E0BA
:1008E0009083E0918901F0918A011082E0918B015F
:1008F000F0918C018FEC808310929501E091910131
:10090000F091920186E08083E0918F01F091900157
:10091000808180618083E0918F01F09190018081DE
:1009200088608083E0918F01F091900180818068E0
:100930008083E0918F01F091900180818F7D808391
:1009400090931C0283E080931D02ECE9F0E0249177
:10095000E8E8F0E08491882399F090E0880F991FEF
:10096000FC01E859FF4FA591B491FC01EE58FF4FEF
:10097000859194918FB7F894EC91E22BEC938FBF13
:1009800080911D0290E0FC01E656FF4F24918A57AA
:100990009F4FFC0184918823C1F090E0880F991F3C
:1009A000FC01E859FF4FC591D491FC01EE58FF4F6F
:1009B000A591B4919FB7F8943881822F80958323B5
:1009C0008883EC91E22BEC939FBF81E080931E0221
:1009D00080E090E0A0E8BFE380932302909324029C
:1009E000A0932502B0932602CAE0C12CD12C760137
:1009F0000E94E702C60ED71EE81EF91E60E070E0F6
:100A0000CB010E943101C15099F7C701B6012AE01C
:100A100030E040E050E00E949308CA01B9010E9412
:100A20004A070E94120760931F027093200280936E
:100A300021029093220280E291E00E9472028BE4F4
:100A400091E00E94720260E177E280E090E00E9413
:100A500031018EE491E00E947202CAE0D0E00E946F
:100A6000E7026B017C0160E070E0CB010E94310184
:100A700080911F0290912002A0912102B091220248
:100A8000A7019601281B390B4A0B5B0BCA01B90160
:100A90000E944A07209123023091240240912502AE
:100AA000509126020E94A0062AE53FEB4DE054E457
:100AB0000E94A00620917001309171014091720155
:100AC000509173010E942F06609370017093710121
:100AD0008093720190937301219709F0C0CF20E0B9
:100AE00030E040E251E40E94A0066B017C014B0122
:100AF0005C01C0927001D0927101E0927201F0929B
:100B00007301AC019B010E946C08882399F083E675
:100B100091E00E9472028BE491E00E947202C0E0B8
:100B2000D0E02097F1F30E94CE018823D1F30E94F8
:100B30000000F7CF26013701E89477F82FEF3FEF59
:100B40004FE75FE7C301B2010E946C0881110DC03D
:100B50002FEF3FEF4FE75FE7C301B2010E949B0613
:100B600018161CF487E691E0D4CF2FEF3FEF4FE744
:100B70005FE4C701B6010E94FA0718161CF48BE661
:100B800091E0C7CF2FEF3FEF4FE75FECC701B60112
:100B90000E949B0687FDF3CF20E030E0A901C7014A
:100BA000B6010E949B0687FF0BC06DE28DE791E0C6
:100BB0000E94040246015701B7FAB094B7F8B09406
:100BC0002AE037ED43EA5BE3C501B4010E942F063A
:100BD0004B015C010E9419076B017C010E944807D0
:100BE0009B01AC01C501B4010E942E064B015C01C2
:100BF0004AE0C701B6010E947F026EE28DE791E0F4
:100C00000E94040220E030E040E251E4C501B4015A
:100C10000E94FF074B015C010E9419076B01F12C38
:100C2000E12C4AE0C701B6010E947F02C701B6016C
:100C30000E9448079B01AC01C501B4010E942E0629
:100C400020E030E040E251E40E94FF070E941907D3
:100C500090E080E04AE00E947F025DCF5058BB27C1
:100C6000AA270E9446060C94C0070E94B20738F0DB
:100C70000E94B90720F039F49F3F19F426F40C9430
:100C8000AF070EF4E095E7FB0C94A907E92F0E944B
:100C9000D10758F3BA17620773078407950720F046
:100CA00079F4A6F50C94F3070EF4E0950B2EBA2F09
:100CB000A02D0B01B90190010C01CA01A001112462
:100CC000FF27591B99F0593F50F4503E68F11A160E
:100CD000F040A22F232F342F4427585FF3CF46959F
:100CE00037952795A795F0405395C9F77EF41F16C1
:100CF000BA0B620B730B840BBAF09150A1F0FF0F8B
:100D0000BB1F661F771F881FC2F70EC0BA0F621F76
:100D1000731F841F48F4879577956795B795F79566
:100D20009E3F08F0B0CF9395880F08F09927EE0FFB
:100D30009795879508950E94850708F481E00895A6
:100D40000E94B4060C94C0070E94B90758F00E9494
:100D5000B20740F029F45F3F29F00C94A907511124
:100D60000C94F4070C94AF070E94D10768F3992301
:100D7000B1F3552391F3951B550BBB27AA27621797
:100D80007307840738F09F5F5F4F220F331F441FA4
:100D9000AA1FA9F335D00E2E3AF0E0E832D09150D8
:100DA0005040E695001CCAF72BD0FE2F29D0660FC5
:100DB000771F881FBB1F261737074807AB07B0E808
:100DC00009F0BB0B802DBF01FF2793585F4F3AF00E
:100DD0009E3F510578F00C94A9070C94F4075F3FEF
:100DE000E4F3983ED4F3869577956795B795F79594
:100DF0009F5FC9F7880F911D9695879597F908957C
:100E0000E1E0660F771F881FBB1F62177307840717
:100E1000BA0720F0621B730B840BBA0BEE1F88F726
:100E2000E09508950E9419076894B1110C94F40795
:100E300008950E94D90788F09F5798F0B92F9927F5
:100E4000B751B0F0E1F0660F771F881F991F1AF0B5
:100E5000BA95C9F714C0B13091F00E94F307B1E020
:100E600008950C94F307672F782F8827B85F39F01F
:100E7000B93FCCF3869577956795B395D9F73EF44E
:100E800090958095709561957F4F8F4F9F4F0895F6
:100E9000E89409C097FB3EF4909580957095619514
:100EA0007F4F8F4F9F4F9923A9F0F92F96E9BB27CA
:100EB0009395F695879577956795B795F111F8CF46
:100EC000FAF4BB0F11F460FF1BC06F5F7F4F8F4FB1
:100ED0009F4F16C0882311F096E911C0772321F0A7
:100EE0009EE8872F762F05C0662371F096E8862F3F
:100EF00070E060E02AF09A95660F771F881FDAF796
:100F0000880F9695879597F90895990F0008550FC2
:100F1000AA0BE0E8FEEF16161706E807F907C0F07F
:100F200012161306E407F50798F0621B730B840B87
:100F3000950B39F40A2661F0232B242B252B21F461
:100F400008950A2609F4A140A6958FEF811D811D01
:100F5000089597F99F6780E870E060E008959FEF3B
:100F600080EC089500240A94161617061806090640
:100F7000089500240A94121613061406050608950F
:100F8000092E0394000C11F4882352F0BB0F40F497
:100F9000BF2B11F460FF04C06F5F7F4F8F4F9F4FD7
:100FA000089557FD9058440F551F59F05F3F71F059
:100FB0004795880F97FB991F61F09F3F79F08795C0
:100FC0000895121613061406551FF2CF4695F1DF49
:100FD00008C0161617061806991FF1CF86957105D9
:100FE000610508940895E894BB2766277727CB010D
:100FF00097F908950E94850708F48FEF08950E94DD
:1010000012080C94C0070E94B20738F00E94B9077A
:1010100020F0952311F00C94A9070C94AF0711242C
:101020000C94F4070E94D10770F3959FC1F3950FBC
:1010300050E0551F629FF001729FBB27F00DB11D5C
:10104000639FAA27F00DB11DAA1F649F6627B00DEC
:10105000A11D661F829F2227B00DA11D621F739FD5
:10106000B00DA11D621F839FA00D611D221F749FE3
:101070003327A00D611D231F849F600D211D822F2A
:10108000762F6A2F11249F5750409AF0F1F0882351
:101090004AF0EE0FFF1FBB1F661F771F881F91507E
:1010A0005040A9F79E3F510580F00C94A9070C947D
:1010B000F4075F3FE4F3983ED4F386957795679500
:1010C000B795F795E7959F5FC1F7FE2B880F911DA8
:1010D0009695879597F908950E948507880B990B37
:1010E0000895A1E21A2EAA1BBB1BFD010DC0AA1F69
:1010F000BB1FEE1FFF1FA217B307E407F50720F081
:10110000A21BB30BE40BF50B661F771F881F991FFB
:101110001A9469F760957095809590959B01AC0144
:10112000BD01CF010895052E97FB1EF400940E9487
:10113000AA0857FD07D00E94710807FC03D04EF49F
:101140000C94AA0850954095309521953F4F4F4FEC
:101150005F4F089590958095709561957F4F8F4F63
:101160009F4F0895EE0FFF1F0590F491E02D099415
:101170000F931F93CF93DF938230910510F482E099
:1011800090E0E0912902F0912A0230E020E0B0E006
:10119000A0E0309799F42115310509F44AC0281BC5
:1011A000390B24303105D8F58A819B816115710591
:1011B00089F1FB0193838283FE0111C0408151813B
:1011C0000281138148175907E0F04817590799F42D
:1011D000109761F012960C93129713961C93329607
:1011E000CF01DF91CF911F910F91089500932902B4
:1011F00010932A02F4CF2115310551F042175307FD
:1012000038F0A901DB019A01BD01DF01F801C1CF6E
:10121000EF01F9CF90932A0280932902CDCFFE01EE
:10122000E20FF31F81939193225031093983288370
:10123000D7CF2091270230912802232B41F420910F
:10124000020130910301309328022093270220915C
:101250000001309101012115310541F42DB73EB750
:101260004091040150910501241B350BE0912702A8
:10127000F0912802E217F307A0F42E1B3F0B28176A
:10128000390778F0AC014E5F5F4F2417350748F0FF
:101290004E0F5F1F50932802409327028193919332
:1012A0009FCFF0E0E0E09CCFCF93DF930097E9F091
:1012B000FC01329713821282A0912902B0912A0276
:1012C000ED0130E020E01097A1F420813181820F00
:1012D000931F20912702309128022817390709F01F
:1012E00061C0F0932802E0932702DF91CF91089527
:1012F000EA01CE17DF07E8F54A815B819E014115BF
:101300005105B1F7E901FB83EA8349915991C40F73
:10131000D51FEC17FD0761F4808191810296840F3F
:10132000951FE90199838883828193819B838A83B6
:10133000F0E0E0E012968D919C9113970097B9F53B
:101340002D913C911197CD010296820F931F209110
:101350002702309128022817390739F6309751F5BE
:1013600010922A0210922902B0932802A093270219
:10137000BCCFD383C28340815181840F951FC8178E
:10138000D90761F44E5F5F4F88819981480F591FDB
:10139000518340838A819B81938382832115310508
:1013A00009F0B0CFF0932A02E09329029ECFFD010D
:1013B000DC01C0CF13821282D7CFF894FFCF000098
:1013C0002B02800000000000040264019101510220
:1013D000C201A001B4010000000071024503596F71
:1013E000752068617665203130207365636F6E64A7
:1013F0007320746F2073657420796F7572206B6E23
:101400006F776E206C6F6164000D0A0063616C6918
:1014100062726174696F6E20666163746F723A20E4
:0E142000006E616E00696E66006F76660000F9
:107E0000112484B714BE81FFF0D085E080938100F7
:107E100082E08093C00088E18093C10086E0809377
:107E2000C20080E18093C4008EE0C9D0259A86E02C
:107E300020E33CEF91E0309385002093840096BBD3
:107E4000B09BFECF1D9AA8958150A9F7CC24DD24C4
:107E500088248394B5E0AB2EA1E19A2EF3E0BF2EE7
:107E6000A2D0813461F49FD0082FAFD0023811F036
:107E7000013811F484E001C083E08DD089C08234E0
:107E800011F484E103C0853419F485E0A6D080C0E4
:107E9000853579F488D0E82EFF2485D0082F10E0AE
:107EA000102F00270E291F29000F111F8ED06801E7
:107EB0006FC0863521F484E090D080E0DECF843638
:107EC00009F040C070D06FD0082F6DD080E0C81688
:107ED00080E7D80618F4F601B7BEE895C0E0D1E017
:107EE00062D089930C17E1F7F0E0CF16F0E7DF06D8
:107EF00018F0F601B7BEE89568D007B600FCFDCFD4
:107F0000A601A0E0B1E02C9130E011968C91119780
:107F100090E0982F8827822B932B1296FA010C0160
:107F200087BEE89511244E5F5F4FF1E0A038BF0790
:107F300051F7F601A7BEE89507B600FCFDCF97BE46
:107F4000E89526C08437B1F42ED02DD0F82E2BD052
:107F50003CD0F601EF2C8F010F5F1F4F84911BD097
:107F6000EA94F801C1F70894C11CD11CFA94CF0C13
:107F7000D11C0EC0853739F428D08EE10CD085E9AC
:107F80000AD08FE07ACF813511F488E018D01DD067
:107F900080E101D065CF982F8091C00085FFFCCF94
:107FA0009093C60008958091C00087FFFCCF809118
:107FB000C00084FD01C0A8958091C6000895E0E648
:107FC000F0E098E1908380830895EDDF803219F02E
:107FD00088E0F5DFFFCF84E1DECF1F93182FE3DFCA
:107FE0001150E9F7F2DF1F91089580E0E8DFEE27F6
:047FF000FF270994CA
:027FFE00040479
:00000001FF
