:020000040000FA
:100000000C9462000C948A000C948A000C948A0070
:100010000C948A000C948A000C948A000C948A0038
:100020000C948A000C948A000C948A000C948A0028
:100030000C948A000C948A000C948A000C948A0018
:100040000C9442060C948A000C94B2060C948C0614
:100050000C948A000C948A000C948A000C948A00F8
:100060000C94E4060C948A00000000002400270091
:100070002A0000000000250028002B0000000000DE
:1000800023002600290004040404040404040202DA
:100090000202020203030303030301020408102007
:1000A0004080010204081020010204081020000012
:1000B0000008000201000003040700000000000027
:1000C0000000030811241FBECFEFD8E0DEBFCDBF74
:1000D00011E0A0E0B1E0ECEBF9E102C005900D9277
:1000E000A03BB107D9F723E0A0EBB1E001C01D921E
:1000F000AC38B207E1F710E0C2E6D0E004C02197C7
:10010000FE010E94B10BC136D107C9F70E94F60863
:100110000C94DC0C0C9400000F931F93982F8FB756
:10012000F89440916F025091700260917102709149
:1001300072028FBF0091300310913103209132037E
:1001400030913303401B510B620B730B4932510545
:100150006105710508F43FC08FB7F89440916F02B4
:100160005091700260917102709172028FBF409342
:10017000300350933103609332037093330380E470
:1001800080937C0080917A00806480937A008091D3
:100190007A0086FDFCCF4091780050917900209143
:1001A0002B0330912C03BA01621B730B9B0177FF69
:1001B00003C031952195310981E060912D03709143
:1001C0002E03261737070CF080E080932F035093FF
:1001D0002C0340932B0380912F03882311F1892F47
:1001E00090E0880F991F2091290330912A03820FF4
:1001F000931FFC018081918140912B0350912C032E
:1002000020912D0330912E03BC01621B730B6417E8
:10021000750734F4280F391F81E0421753070CF09B
:1002200080E01F910F910895833081F028F4813090
:1002300099F08230A9F008958730A9F08830C9F08C
:100240008430B1F4809180008F7D03C08091800064
:100250008F7780938000089584B58F7784BD08954B
:1002600084B58F7DFBCF8091B0008F778093B000F5
:1002700008958091B0008F7DF9CFCF93DF93282F21
:1002800030E0F901E255FF4F8491F901E656FF4F46
:10029000D491F901EA57FF4FC491CC23A1F0811109
:1002A0000E941401EC2FF0E0EE0FFF1FE458FF4F07
:1002B000A591B491EC91ED2381E090E009F480E008
:1002C000DF91CF91089580E090E0FACF1F93CF9314
:1002D000DF93282F30E0F901E255FF4F8491F901B7
:1002E000E656FF4FD491F901EA57FF4FC491CC2352
:1002F000A9F0162F81110E941401EC2FF0E0EE0FEF
:10030000FF1FEE58FF4FA591B4918FB7F894EC9171
:10031000111108C0D095DE23DC938FBFDF91CF9100
:100320001F910895DE2BF8CF3FB7F89480916B02B0
:1003300090916C02A0916D02B0916E0226B5A89BBF
:1003400005C02F3F19F00196A11DB11D3FBFBA2F67
:10035000A92F982F8827BC01CD01620F711D811D27
:10036000911D42E0660F771F881F991F4A95D1F7AC
:1003700008958F929F92AF92BF92CF92DF92EF92A9
:10038000FF926B017C010E9494014B015C01C1143E
:10039000D104E104F104B9F00E94940168197909CB
:1003A0008A099B09683E73408105910580F321E02D
:1003B000C21AD108E108F10888EE880E83E0981E81
:1003C000A11CB11CE4CFFF90EF90DF90CF90BF90C5
:1003D000AF909F908F90089508950895AF92BF9227
:1003E000CF92DF92EF92FF920F931F93CF93DF9301
:1003F0006C017B018B01040F151FEB015E01AE1830
:10040000BF08C017D10759F06991D601ED91FC9151
:100410000190F081E02DC6010995892B79F7C5017E
:10042000DF91CF911F910F91FF90EF90DF90CF90D0
:10043000BF90AF900895FC01538D448D252F30E07F
:10044000842F90E0821B930B541710F0CF960895E1
:1004500001970895FC01918D828D981761F0A28D0E
:10046000AE0FBF2FB11D5D968C91928D9F5F9F73D4
:10047000928F90E008958FEF9FEF0895FC01918D8A
:10048000828D981731F0828DE80FF11D858D90E0F7
:1004900008958FEF9FEF0895FC01918D228D892F94
:1004A00090E0805C9F4F821B91098F73992708957C
:1004B00083E792E00E944C0221E0892B09F420E0BE
:1004C000822F089580E090E0892B29F00E94580245
:1004D00081110C9400000895FC01A48DA80FB92F80
:1004E000B11DA35ABF4F2C91848D90E001968F735C
:1004F0009927848FA689B7892C93A089B1898C917B
:10050000837080648C93938D848D981306C00288C9
:10051000F389E02D80818F7D80830895EF92FF9293
:100520000F931F93CF93DF93EC0181E0888F9B8D16
:100530008C8D98131AC0E889F989808185FF15C0D0
:100540009FB7F894EE89FF896083E889F9898081F3
:100550008370806480839FBF81E090E0DF91CF91C2
:100560001F910F91FF90EF900895F62E0B8D10E0E4
:100570000F5F1F4F0F731127E02E8C8D8E110CC053
:100580000FB607FCFACFE889F989808185FFF5CF9E
:10059000CE010E946C02F1CFEB8DEC0FFD2FF11D0F
:1005A000E35AFF4FF0829FB7F8940B8FEA89FB89DB
:1005B00080818062CFCFCF93DF93EC01888D882339
:1005C000B9F0AA89BB89E889F9898C9185FD03C0B6
:1005D000808186FD0DC00FB607FCF7CF8C9185FF9B
:1005E000F2CF808185FFEDCFCE010E946C02E9CF72
:1005F000DF91CF91089508952091F101260F3327BF
:10060000331F21323105ECF420913A02FC0190E0D5
:1006100080E0243069F082E00895A091F1012191F9
:10062000AC014F525E4FA40FB52FB11D2C93019614
:10063000861798F38091F101680F6093F10180E0D3
:10064000089581E0089510923A0281E08093390282
:100650001092140261E082E10E94660161E083E190
:100660000E946601E9EBF0E080818E7F80838081CB
:100670008D7F808388E48093B80085E48093BC00FC
:100680000895CF93DF9391E09093D0018823B9F040
:10069000C091B800D091BA008091BC008A7B809351
:1006A000BC0060E082E10E94660160E083E10E949C
:1006B00066010E942303D093BA00C093B800DF9173
:1006C000CF9108950895E091690280916802E8173A
:1006D00030F4F0E0E055FE4F808190E008958FEF18
:1006E0009FEF089590916902809168022FEF3FEF8C
:1006F000981748F4E92FF0E0E055FE4F208130E0F4
:100700009F5F90936902C90108958091680290915A
:100710006902891B990B0895CF92DF92EF92FF92A5
:100720000F931F93CF93DF937C01CB018A0120911C
:100730004002222389F0EB016B01C40ED51ECC15BB
:10074000DD0569F06991D701ED91FC910190F0818F
:10075000E02DC7010995F3CF642F0E94FC02C80168
:10076000DF91CF911F910F91FF90EF90DF90CF908D
:100770000895CF93DF931F92CDB7DEB769832091A1
:1007800040022223F9F020916602203258F021E045
:1007900030E0FC013383228390E080E00F90DF9112
:1007A000CF91089580916702E82FF0E0EF5BFD4F55
:1007B000998190838F5F809367028093660281E0C6
:1007C00090E0ECCF61E0CE0101960E94FC02F7CFF1
:1007D000CF92DF92EF92FF920F931F93CF93DF930D
:1007E000FC01C48121E020934002C0936102109279
:1007F0006702109266028385682B80E193E00E9475
:10080000B903D0916602D13208F092C00E949401DF
:100810006B017C0180913A02811165C082E0809376
:100820003A0281E0809339028FEF80933802109270
:100830003702D0933602A1E4B2E0E6E1F2E080E0D4
:10084000D81385C01092150280911502CC0FC82BC9
:10085000C093150280911402813009F07CC010927F
:1008600014020E9494016B017C0180911502809317
:10087000BB0080913C0290913D02A0913E02B0915C
:100880003F02892B8A2B8B2B99F00E9494010091B7
:100890003C0210913D0220913E0230913F026C19C2
:1008A0007D098E099F090617170728073907E0F108
:1008B0008091BC0083FDD9CF85EC8093BC000E9461
:1008C00094016B017C0180913A02823009F445C0A9
:1008D000809138028F3F61F180913802803241F17E
:1008E0008091380225C080913C0290913D02A091F8
:1008F0003E02B0913F02892B8A2B8B2B09F48ACFC1
:100900000E94940100913C0210913D0220913E0210
:1009100030913F026C197D098E099F090617170750
:100920002807390708F076CF80913B020E944103E7
:10093000109267021092660210924002DF91CF91EE
:100940001F910F91FF90EF90DF90CF9008959D91B0
:1009500091938F5F75CF85EEB0CF80913C029091DF
:100960003D02A0913E02B0913F02892B8A2B8B2B36
:1009700009F4A9CF0E94940100913C0210913D021C
:1009800020913E0230913F026C197D098E099F092A
:10099000061717072807390708F095CFC5CF90E04D
:1009A00080E008950895CF93DF93FC018185811144
:1009B00061C081E0818761708381948193FB2227EC
:1009C00020F9462F4227378140FB37F937836213DE
:1009D00002C097FF4EC08FB7F89440916F025091BC
:1009E000700260917102709172028FBF828593854F
:1009F0009A01281B390BA78183819481A7FF57C0D7
:100A0000EC01D068D483C38383FD23C096FF0EC05E
:100A10002333310570F188609068948383838581E6
:100A2000807F886085835387428723C0A581A07F0C
:100A3000A583DC01B06CB483A3832139314010F469
:100A400085FFF1CF12828F719F7C906C948383839A
:100A5000EACF84FD1DC0AF77C0E4AC9FD001112464
:100A60002A173B0760F42581277084609068211164
:100A70003CC0118685818F70DF91CF91089582FDF2
:100A8000F8CF2581207F2660258380639068DECFA4
:100A9000A085AF77C0E2AC9FD0011124A217B307A5
:100AA00040F72581207F27602583906ACFCF83FF81
:100AB00023C023333105A0F09C0124713327232B5D
:100AC00039F42581207F2560258322812F5F2283B1
:100AD0005387428795FD0CC0837E94609483838303
:100AE0008381948196FFC5CF9F7B94838383C1CFFD
:100AF000837E9F7D9461F2CF4281442311F085FF74
:100B000002C09F77EBCF2139314050F3806EE6CFA2
:100B1000FC012381348132FF05C03B7F3483238372
:100B200081E0089580E00895FF920F931F93CF9383
:100B3000DF93F82E062FC7E0D0E010E061E0802FB1
:100B40000E9466018F2D0E943D010C2E01C0880F6E
:100B50000A94EAF7182B60E0802F0E946601219723
:100B600068F7812FDF91CF911F910F91FF9008952A
:100B70000F931F93CF938C01C62F0E94E8036C2F15
:100B80006460C8010E94E8036C2F6B7FC8010E945B
:100B9000E80383EC90E00197F1F7CF911F910F915B
:100BA00008950F931F93CF93DF938C01D62FC42FFB
:100BB000607F642B0E94B80580E1D89FB0011124AA
:100BC0006C2BC801DF91CF911F910F910C94B80548
:100BD00040E061E08CE793E00E94D1058BE39FE168
:100BE0000197F1F7089541E00E94D10581E090E07E
:100BF0000895FB0101900020E9F73197AF01461BF2
:100C0000570BDC01ED91FC910280F381E02D0994FA
:100C100085ED8093BC0080913C0290913D02A091B3
:100C20003E02B0913F020796A11DB11D23E0B6958B
:100C3000A795979587952A95D1F72091BC0024FD1B
:100C400003C010923A02089540913C0250913D0237
:100C500060913E0270913F02452B462B472B69F372
:100C60000097A105B10541F02AE22A95F1F700C0ED
:100C70000197A109B109E1CF80913B020C94410396
:100C80000C94530C1F920F920FB60F9211242F93B6
:100C90003F938F939F93AF93BF9380916F029091F7
:100CA0007002A0917102B091720230916A0223E049
:100CB000230F2D3758F50196A11DB11D20936A020F
:100CC00080936F0290937002A0937102B0937202AE
:100CD00080916B0290916C02A0916D02B0916E02B6
:100CE0000196A11DB11D80936B0290936C02A0939D
:100CF0006D02B0936E02BF91AF919F918F913F9122
:100D00002F910F900FBE0F901F90189526E8230F7C
:100D10000296A11DB11DD2CF1F920F920FB60F9256
:100D200011242F933F934F935F936F937F938F93F0
:100D30009F93AF93BF93EF93FF9383E792E00E945B
:100D40006C02FF91EF91BF91AF919F918F917F9135
:100D50006F915F914F913F912F910F900FBE0F9028
:100D60001F9018951F920F920FB60F9211242F9378
:100D70008F939F93EF93FF93E0918302F09184020E
:100D80008081E0918902F0918A0282FD1BC09081EE
:100D900080918C028F5F8F7320918D02821741F0BA
:100DA000E0918C02F0E0ED58FD4F958F80938C021E
:100DB000FF91EF919F918F912F910F900FBE0F9008
:100DC0001F9018958081F4CF1F920F920FB60F924B
:100DD00011242F933F934F935F936F937F938F9340
:100DE0009F93AF93BF93EF93FF938091B900887F58
:100DF000803609F44AC0F0F5883209F4A7C018F526
:100E0000803109F49BC0B8F4882309F4F9C0883014
:100E100009F494C0FF91EF91BF91AF919F918F9191
:100E20007F916F915F914F913F912F910F900FBEE6
:100E30000F901F901895883109F488C0803251F7BF
:100E40008093380214C0803409F49DC040F480338C
:100E5000B9F38833F9F68093380285ECB0C0803559
:100E600009F485C0883509F496C0883499F60E9443
:100E70000806D0CF883909F48CC038F5883729F0B6
:100E800050F4883611F0803729F683E080933A02D7
:100E90001092130257C0883809F47BC0803919F0CA
:100EA000803809F0B7CF80911302803208F071C00A
:100EB000E091130281E08E0F809313028091BB00BA
:100EC000F0E0ED50FE4F80833DC0803B39F0E0F410
:100ED000803A09F479C0883A09F09CCF84E0809385
:100EE0003A021092F2011092F101E0916402F09145
:100EF000650209958091F10181110FC081E0809315
:100F0000F1011092D10109C0803C09F4A6CF883CC0
:100F100009F4A3CF883B09F07DCFE091F20181E095
:100F20008E0F8093F201F0E0EF52FE4F80818093AC
:100F3000BB009091F2018091F10129C080911502CE
:100F40008093BB0085EC8093BC0064CF9091370206
:100F500080913602981758F5E091370281E08E0FA4
:100F600080933702F0E0EA5EFD4F8081E9CFE091A7
:100F7000370281E08E0F809337028091BB00F0E052
:100F8000EA5EFD4F80839091370280913602981778
:100F9000C8F285E8D8CFE091370281E08E0F8093C8
:100FA00037028091BB00F0E0EA5EFD4F80838091C4
:100FB000390281115CCF81E08093140284EA80932E
:100FC000BC0010923A0226CF85EC8093BC001092B0
:100FD0003A0280911302803230F4E0911302F0E083
:100FE000ED50FE4F10826091130270E0E0916202BA
:100FF000F091630283EF91E00995109213020ACFFA
:101000001092380234CFE3E7F2E01382128288EEC6
:1010100093E0A0E0B0E084839583A683B78326E1C4
:1010200031E03183208325EC30E03587248724ECC0
:1010300030E03787268720EC30E0318B208B21ECA5
:1010400030E0338B228B22EC30E0358B248B26EC86
:1010500030E0378B268B118E128E138E148EE0E1CA
:10106000F3E01382128284839583A683B78388E298
:1010700091E091838083ECE7F3E01382128282E4B3
:1010800091E09183808380E2848380E1808782E0A5
:101090008187128688E08387E0E7F3E0118210827F
:1010A000128214821382118613861286E5E7F3E01A
:1010B00081818F778183838180788F608383828130
:1010C00080788F608283E4E6F3E0118210821282DE
:1010D00014821382118613861286E9E6F3E0818179
:1010E0008F778183838180788F608383828180780A
:1010F0008F608283E8E5F3E011821082128214820D
:101100001382118613861286EDE5F3E081818F77D5
:101110008183838180788F608383828180788F60F0
:101120008283ECE4F3E01182108212821482138233
:10113000118613861286E1E5F3E081818F77818342
:10114000838180788F608383828180788F608283BF
:10115000E0E4F3E01182108212821482138211867D
:1011600013861286E5E4F3E081818F7781838381A2
:1011700080788F608383828180788F608283E4E3CC
:10118000F3E0118210821282148213821186138678
:101190001286E9E3F3E081818F7781838381807810
:1011A0008F608383828180788F608283E9E2F3E0BD
:1011B00080E091E0918380831382128284E190E049
:1011C000958384831682ECE1F3E08AE391E09183D6
:1011D0008083158216821782108680E090E0A0E856
:1011E000BFE381879287A387B4870895CF93DF9366
:1011F000CDB7DEB7A1970FB6F894DEBF0FBECDBF57
:10120000789484B5826084BD84B5816084BD85B5E1
:10121000826085BD85B5816085BD80916E008160ED
:1012200080936E0010928100809181008260809393
:101230008100809181008160809381008091800095
:101240008160809380008091B10084608093B100C0
:101250008091B00081608093B00080917A008460BA
:1012600080937A0080917A00826080937A008091E6
:101270007A00816080937A0080917A008068809300
:101280007A001092C100E0918302F091840282E022
:101290008083E0917F02F09180021082E0918102D0
:1012A000F09182028FEC808310928B02E091870292
:1012B000F091880286E08083E0918502F0918602B9
:1012C000808180618083E0918502F0918602808137
:1012D00088608083E0918502F09186028081806839
:1012E0008083E0918502F091860280818F7D8083EA
:1012F00010926902109268021092670210926602C0
:101300000E9423038CEE91E0909365028093640227
:101310008DEE91E0909363028093620210928103BC
:1013200080918503823018F098E09093810390912A
:101330008603992339F0813029F4809181038460F8
:101340008093810362E370E080E090E00E94B90145
:10135000609187038CE793E00E94E80368EE73E0F6
:1013600080E090E00E94B90160E38CE793E00E9486
:10137000B8050BE416E4C8010197F1F760E38CE7C8
:1013800093E00E94B805C8010197F1F760E38CE78C
:1013900093E00E94B80583E592E00197F1F760E2DF
:1013A0008CE793E00E94B80560918103606240E0A1
:1013B0008CE793E00E94D10584E08093820340E0B3
:1013C0006CE08CE793E00E94D1050E94E80512E0F2
:1013D0001093830340E066E08CE793E00E94D10520
:1013E00040E062E08CE793E00E94D1058BE39FE14F
:1013F0000197F1F788E08093870360E08CE793E042
:101400000E94E80310931E0383E080931F03ECE91E
:10141000F0E02491E8E8F0E08491882399F090E0EE
:10142000880F991FFC01E859FF4FA591B491FC0169
:10143000EE58FF4F859194918FB7F894EC91E22B81
:10144000EC938FBF80911F0390E0FC01E656FF4FA5
:1014500024918A579F4FFC0184918823C9F090E022
:10146000880F991FFC01E859FF4F45915491FC01E9
:10147000EE58FF4FA591B4919FB7F894FA013081CF
:10148000822F809583238083EC912E2B2C939FBFFA
:1014900081E0809320032AE0422E512C612C712C94
:1014A00030E0A32E30E0B32E80E00E948C00682F45
:1014B00080E793E00E94D30481E00E948C00682FB3
:1014C00084E693E00E94D30482E00E948C00682F9F
:1014D00088E593E00E94D30483E00E948C00682F8B
:1014E0008CE493E00E94D30484E00E948C00682F77
:1014F00080E493E00E94D30485E00E948C00682F72
:1015000084E393E00E94D30480E793E00E9488057F
:10151000882341F00E94E8056AE471E08CE793E0DB
:101520000E94F90584E693E00E948805882341F033
:101530000E94E80565E571E08CE793E00E94F905FB
:1015400088E593E00E948805882341F00E94E80521
:1015500060E671E08CE793E00E94F9058CE493E08B
:101560000E948805882341F00E94E8056BE671E03F
:101570008CE793E00E94F90580E493E00E948805DF
:10158000882341F00E94E80566E771E08CE793E06C
:101590000E94F90584E393E00E948805882341F0C6
:1015A0000E94E80561E871E08CE793E00E94F9058C
:1015B00080911F030E943D016FE971E0892B09F0C2
:1015C000A9C080911F030E943D01892B31F060E08A
:1015D00070E0CB010E94B901F4CFDFB6F8946091BE
:1015E0001E0380911F030E949405182F60911E0313
:1015F00080911F030E949405C82E60911E03809164
:101600001F030E949405082FF12CE12C80912003E8
:101610008E151F0479F070F061E080911E030E9426
:10162000660160E080911E030E946601FFEFEF1AE1
:10163000FF0AECCFDFBED12CF12CE12CFE2CED2CDF
:10164000DC2CCC24E12AC02A110F110B212F30E011
:1016500050E040E0522F442733272227C22AD32AC2
:10166000E42AF52A6CE871E083E792E00E94F9052C
:10167000F7FE3AC06DE283E792E00E948E022227D5
:101680003327A9012C193D094E095F0919A28E01C2
:101690000F5D1F4FCA01B901A30192010E948F0B78
:1016A000605DF80162938F012115310541055105F7
:1016B00089F7B801012B71F56CE971E083E792E0DD
:1016C0000E94F90568EE73E080E090E00E94B901A5
:1016D000A114B10409F4E8CE0E945802882309F449
:1016E000E3CE0E940000E0CE19A28E010F5D1F4FD5
:1016F000C701B601A30192010E948F0B69017A0113
:10170000605DF80162938F01C114D104E104F1041A
:1017100079F7CFCF83E792E00E94F905CDCFA1E220
:101720001A2EAA1BBB1BFD010DC0AA1FBB1FEE1F5B
:10173000FF1FA217B307E407F50720F0A21BB30BA6
:10174000E40BF50B661F771F881F991F1A9469F722
:1017500060957095809590959B01AC01BD01CF017E
:101760000895EE0FFF1F0590F491E02D09940F935B
:101770001F93CF93DF938230910510F482E090E0C5
:10178000E0918A03F0918B0330E020E0B0E0A0E02C
:10179000309799F42115310509F44AC0281B390BFB
:1017A00024303105D8F58A819B816115710589F155
:1017B000FB0193838283FE0111C04081518102812C
:1017C000138148175907E0F04817590799F4109703
:1017D00061F012960C93129713961C933296CF01D8
:1017E000DF91CF911F910F91089500938A03109379
:1017F0008B03F4CF2115310551F04217530738F010
:10180000A901DB019A01BD01DF01F801C1CFEF01A0
:10181000F9CF90938B0380938A03CDCFFE01E20F23
:10182000F31F819391932250310939832883D7CFB5
:101830002091880330918903232B41F420910E01DC
:1018400030910F01309389032093880320910C017C
:1018500030910D012115310541F42DB73EB740916E
:10186000100150911101241B350BE0918803F09178
:101870008903E217F307A0F42E1B3F0B2817390743
:1018800078F0AC014E5F5F4F2417350748F04E0FDC
:101890005F1F5093890340938803819391939FCF57
:1018A000F0E0E0E09CCFCF93DF930097E9F0FC01FC
:1018B000329713821282A0918A03B0918B03ED01BB
:1018C00030E020E01097A1F420813181820F931F36
:1018D00020918803309189032817390709F061C0E6
:1018E000F0938903E0938803DF91CF910895EA0193
:1018F000CE17DF07E8F54A815B819E01411551054E
:10190000B1F7E901FB83EA8349915991C40FD51FCF
:10191000EC17FD0761F4808191810296840F951F79
:10192000E90199838883828193819B838A83F0E094
:10193000E0E012968D919C9113970097B9F52D9147
:101940003C911197CD010296820F931F209188033D
:10195000309189032817390739F6309751F51092DD
:101960008B0310928A03B0938903A0938803BCCFA2
:10197000D383C28340815181840F951FC817D90733
:1019800061F44E5F5F4F88819981480F591F5183E1
:1019900040838A819B81938382832115310509F0DD
:1019A000B0CFF0938B03E0938A039ECFFD01DC015F
:1019B000C0CF13821282D7CFF894FFCFFF03550315
:1019C00065027F01DB006D0000008C0380000000D9
:1019D00000008E02EE011B02DB024C022A023E02D4
:1019E00000000000B9038C03CF0462038503720377
:1019F000630300000000D204400600000000F3056D
:101A0000EE01CF04FB0262746E30556E7072657326
:101A10000062746E31556E707265730062746E325E
:101A2000556E707265730062746E33556E707265B8
:101A3000730062746E34556E707265730062746EFA
:101A400035556E70726573004858373131207265B4
:101A50006164696E673A20000D0A004858373131D9
:0C1A6000206E6F7420666F756E642E009F
:107E0000112484B714BE81FFF0D085E080938100F7
:107E100082E08093C00088E18093C10086E0809377
:107E2000C20080E18093C4008EE0C9D0259A86E02C
:107E300020E33CEF91E0309385002093840096BBD3
:107E4000B09BFECF1D9AA8958150A9F7CC24DD24C4
:107E500088248394B5E0AB2EA1E19A2EF3E0BF2EE7
:107E6000A2D0813461F49FD0082FAFD0023811F036
:107E7000013811F484E001C083E08DD089C08234E0
:107E800011F484E103C0853419F485E0A6D080C0E4
:107E9000853579F488D0E82EFF2485D0082F10E0AE
:107EA000102F00270E291F29000F111F8ED06801E7
:107EB0006FC0863521F484E090D080E0DECF843638
:107EC00009F040C070D06FD0082F6DD080E0C81688
:107ED00080E7D80618F4F601B7BEE895C0E0D1E017
:107EE00062D089930C17E1F7F0E0CF16F0E7DF06D8
:107EF00018F0F601B7BEE89568D007B600FCFDCFD4
:107F0000A601A0E0B1E02C9130E011968C91119780
:107F100090E0982F8827822B932B1296FA010C0160
:107F200087BEE89511244E5F5F4FF1E0A038BF0790
:107F300051F7F601A7BEE89507B600FCFDCF97BE46
:107F4000E89526C08437B1F42ED02DD0F82E2BD052
:107F50003CD0F601EF2C8F010F5F1F4F84911BD097
:107F6000EA94F801C1F70894C11CD11CFA94CF0C13
:107F7000D11C0EC0853739F428D08EE10CD085E9AC
:107F80000AD08FE07ACF813511F488E018D01DD067
:107F900080E101D065CF982F8091C00085FFFCCF94
:107FA0009093C60008958091C00087FFFCCF809118
:107FB000C00084FD01C0A8958091C6000895E0E648
:107FC000F0E098E1908380830895EDDF803219F02E
:107FD00088E0F5DFFFCF84E1DECF1F93182FE3DFCA
:107FE0001150E9F7F2DF1F91089580E0E8DFEE27F6
:047FF000FF270994CA
:027FFE00040479
:00000001FF
