:100000000C9458000C9480000C9480000C94800098
:100010000C9480000C9480000C9480000C94800060
:100020000C9480000C9480000C9480000C94800050
:100030000C9480000C9480000C9480000C94800040
:100040000C94DA050C9480000C944A060C94240657
:100050000C9480000C9480000C9480000C94800020
:100060000C947C060C948000000000002500280001
:100070002B00040404040404040402020202020229
:10008000030303030303010204081020408001025C
:1000900004081020010204081020000000080002DB
:1000A00001000003040700000000000000009B079F
:1000B00011241FBECFEFD8E0DEBFCDBF11E0A0E01E
:1000C000B1E0E4E1F4E102C005900D92AE37B10772
:1000D000D9F723E0AEE7B1E001C01D92A934B20721
:1000E000E1F710E0C8E5D0E004C02197FE010E94CE
:1000F000020AC735D107C9F70E947C080C94080A88
:100100000C9400000F931F93982F8FB7F894409191
:100110003D0250913E0260913F02709140028FBFBC
:100120000091F1021091F2022091F3023091F40259
:10013000401B510B620B730B493251056105710570
:1001400008F43FC08FB7F89440913D0250913E02B1
:1001500060913F02709140028FBF4093F102509333
:10016000F2026093F3027093F40280E480937C00C7
:1001700080917A00806480937A0080917A0086FD75
:10018000FCCF40917800509179002091EC023091A1
:10019000ED02BA01621B730B9B0177FF03C031951F
:1001A0002195310981E06091EE027091EF022617EE
:1001B00037070CF080E08093F0025093ED024093FB
:1001C000EC028091F002882311F1892F90E0880FD2
:1001D000991F2091EA023091EB02820F931FFC01DC
:1001E000808191814091EC025091ED022091EE02CC
:1001F0003091EF02BC01621B730B6417750734F476
:10020000280F391F81E0421753070CF080E01F913F
:100210000F91089590E0FC01E656FF4F2491FC01F8
:10022000EA57FF4F3491FC01EE58FF4FE491EE2363
:10023000C9F0222339F0233001F1A8F4213019F15B
:10024000223029F1F0E0EE0FFF1FE859FF4FA59192
:10025000B4918FB7F894EC91611126C030953E238C
:100260003C938FBF08952730A9F02830C9F024307F
:1002700049F7809180008F7D03C0809180008F7747
:1002800080938000DFCF84B58F7784BDDBCF84B5CA
:100290008F7DFBCF8091B0008F778093B000D2CF5D
:1002A0008091B0008F7DF9CF3E2BDACF3FB7F89425
:1002B0008091390290913A02A0913B02B0913C02A8
:1002C00026B5A89B05C02F3F19F00196A11DB11DB1
:1002D0003FBFBA2FA92F982F8827BC01CD01620FED
:1002E000711D811D911D42E0660F771F881F991FA8
:1002F0004A95D1F708958F929F92AF92BF92CF9275
:10030000DF92EF92FF924B015C010E9456016B015C
:100310007C010E9456016C197D098E099F09683E77
:10032000734081059105A8F321E0821A9108A10884
:10033000B10888EEC80E83E0D81EE11CF11C8114C0
:100340009104A104B10429F7FF90EF90DF90CF90C2
:10035000BF90AF909F908F90089508950895AF92A9
:10036000BF92CF92DF92EF92FF920F931F93CF93A2
:10037000DF936C017B018B01040F151FEB015E0104
:10038000AE18BF08C017D10759F06991D601ED9199
:10039000FC910190F081E02DC6010995892B79F738
:1003A000C501DF91CF911F910F91FF90EF90DF90EA
:1003B000CF90BF90AF900895FC01538D448D252FB1
:1003C00030E0842F90E0821B930B541710F0CF96EF
:1003D000089501970895FC01918D828D981761F021
:1003E000A28DAE0FBF2FB11D5D968C91928D9F5F38
:1003F0009F73928F90E008958FEF9FEF0895FC0117
:10040000918D828D981731F0828DE80FF11D858DC9
:1004100090E008958FEF9FEF0895FC01918D228D5C
:10042000892F90E0805C9F4F821B91098F739927E1
:10043000089581E492E00E940D0221E0892B09F4E5
:1004400020E0822F089580E090E0892B29F00E941F
:10045000190281110C9400000895FC01A48DA80FCD
:10046000B92FB11DA35ABF4F2C91848D90E00196F6
:100470008F739927848FA689B7892C93A089B18916
:100480008C91837080648C93938D848D981306C0B7
:100490000288F389E02D80818F7D80830895EF921B
:1004A000FF920F931F93CF93DF93EC0181E0888F2E
:1004B0009B8D8C8D98131AC0E889F989808185FFFE
:1004C00015C09FB7F894EE89FF896083E889F989A0
:1004D00080818370806480839FBF81E090E0DF91A2
:1004E000CF911F910F91FF90EF900895F62E0B8DF5
:1004F00010E00F5F1F4F0F731127E02E8C8D8E11B0
:100500000CC00FB607FCFACFE889F989808185FF16
:10051000F5CFCE010E942D02F1CFEB8DEC0FFD2F18
:10052000F11DE35AFF4FF0829FB7F8940B8FEA89D1
:10053000FB8980818062CFCFCF93DF93EC01888DE0
:100540008823B9F0AA89BB89E889F9898C9185FD4E
:1005500003C0808186FD0DC00FB607FCF7CF8C91DC
:1005600085FFF2CF808185FFEDCFCE010E942D0265
:10057000E9CFDF91CF91089508952091BF01260F13
:100580003327331F21323105ECF420910802FC019E
:1005900090E080E0243069F082E00895A091BF01EE
:1005A0002191AC0141565E4FA40FB52FB11D2C9384
:1005B0000196861798F38091BF01680F6093BF0181
:1005C00080E0089581E008951092080281E0809310
:1005D00007021092E20161E082E10E940A0161E0FB
:1005E00083E10E940A01E9EBF0E080818E7F808345
:1005F00080818D7F808388E48093B80085E4809338
:10060000BC000895CF93DF9391E090939E018823DF
:10061000B9F0C091B800D091BA008091BC008A7B3B
:100620008093BC0060E082E10E940A0160E083E107
:100630000E940A010E94E402D093BA00C093B8005D
:10064000DF91CF9108950895E091370280913602AD
:10065000E81730F4F0E0E258FE4F808190E0089512
:100660008FEF9FEF089590913702809136022FEF20
:100670003FEF981748F4E92FF0E0E258FE4F208151
:1006800030E09F5F90933702C90108958091360250
:1006900090913702891B990B0895CF92DF92EF92C8
:1006A000FF920F931F93CF93DF937C01CB018A01BD
:1006B00020910E02222389F0EB016B01C40ED51E9E
:1006C000CC15DD0569F06991D701ED91FC910190A0
:1006D000F081E02DC7010995F3CF642F0E94BD0280
:1006E000C801DF91CF911F910F91FF90EF90DF90A4
:1006F000CF900895CF93DF931F92CDB7DEB7698374
:1007000020910E022223F9F020913402203258F079
:1007100021E030E0FC013383228390E080E00F9001
:10072000DF91CF91089580913502E82FF0E0E15FED
:10073000FD4F998190838F5F8093350280933402BF
:1007400081E090E0ECCF61E0CE0101960E94BD0215
:10075000F7CFCF92DF92EF92FF920F931F93CF9339
:10076000DF93FC01C48121E020930E02C0932F028D
:1007700010923502109234028385682B8EED92E040
:100780000E947A03D0913402D13208F092C00E94C4
:1007900056016B017C0180910802811165C082E0E5
:1007A0008093080281E0809307028FEF8093060216
:1007B00010920502D0930402AFE0B2E0E4EEF1E063
:1007C00080E0D81385C01092E3018091E301CC0F43
:1007D000C82BC093E3018091E201813009F07CC015
:1007E0001092E2010E9456016B017C018091E301AD
:1007F0008093BB0080910A0290910B02A0910C02A1
:10080000B0910D02892B8A2B8B2B99F00E945601F7
:1008100000910A0210910B0220910C0230910D02FE
:100820006C197D098E099F090617170728073907D4
:10083000E0F18091BC0083FDD9CF85EC8093BC00B2
:100840000E9456016B017C0180910802823009F4FC
:1008500045C0809106028F3F61F18091060280328F
:1008600041F18091060225C080910A0290910B020D
:10087000A0910C02B0910D02892B8A2B8B2B09F4CD
:100880008ACF0E94560100910A0210910B0220911A
:100890000C0230910D026C197D098E099F09061713
:1008A00017072807390708F076CF809109020E94C0
:1008B0000203109235021092340210920E02DF9160
:1008C000CF911F910F91FF90EF90DF90CF900895FF
:1008D0009D9191938F5F75CF85EEB0CF80910A0285
:1008E00090910B02A0910C02B0910D02892B8A2BE2
:1008F0008B2B09F4A9CF0E94560100910A02109196
:100900000B0220910C0230910D026C197D098E09A9
:100910009F09061717072807390708F095CFC5CF95
:1009200090E080E00895CF93DF93FC0181858111F1
:1009300061C081E0818761708381948193FB22276C
:1009400020F9462F4227378140FB37F9378362135E
:1009500002C097FF4EC08FB7F89440913D0250916E
:100960003E0260913F02709140028FBF8285938565
:100970009A01281B390BA78183819481A7FF57C057
:10098000EC01D068D483C38383FD23C096FF0EC0DF
:100990002333310570F18860906894838383858167
:1009A000807F886085835387428723C0A581A07F8D
:1009B000A583DC01B06CB483A3832139314010F4EA
:1009C00085FFF1CF12828F719F7C906C948383831B
:1009D000EACF84FD1DC0AF77C0E4AC9FD0011124E5
:1009E0002A173B0760F425812770846090682111E5
:1009F0003CC0118685818F70DF91CF91089582FD73
:100A0000F8CF2581207F2660258380639068DECF24
:100A1000A085AF77C0E2AC9FD0011124A217B30725
:100A200040F72581207F27602583906ACFCF83FF01
:100A300023C023333105A0F09C0124713327232BDD
:100A400039F42581207F2560258322812F5F228331
:100A50005387428795FD0CC0837E94609483838383
:100A60008381948196FFC5CF9F7B94838383C1CF7D
:100A7000837E9F7D9461F2CF4281442311F085FFF4
:100A800002C09F77EBCF2139314050F3806EE6CF23
:100A9000FC012381348132FF05C03B7F34832383F3
:100AA00081E0089580E00895FC0101900020E9F7BD
:100AB0003197AF01481B590BBC018DE393E00C94B7
:100AC000AF010F931F93CF938C01C62F0E94A903F0
:100AD0006C2F6460C8010E94A9036C2F6B7FC80152
:100AE0000E94A90383EC90E00197F1F7CF911F9149
:100AF0000F9108950F931F93CF93DF938C01D62FFF
:100B0000C42F607F642B0E94610580E1D89FB001F3
:100B100011246C2BC801DF91CF911F910F910C9480
:100B2000610540E061E08DE393E00E947A058BE38C
:100B30009FE10197F1F7089541E00E947A0581E075
:100B400090E0089585ED8093BC0080910A02909119
:100B50000B02A0910C02B0910D020796A11DB11DD0
:100B600023E0B695A795979587952A95D1F720917B
:100B7000BC0024FD03C010920802089540910A02AF
:100B800050910B0260910C0270910D02452B462B87
:100B9000472B69F30097A105B10541F02AE22A9598
:100BA000F1F700C00197A109B109E1CF80910902D5
:100BB0000C9402031F920F920FB60F9211242F93E1
:100BC0003F938F939F93AF93BF9380913D029091FA
:100BD0003E02A0913F02B09140023091380223E0E2
:100BE000230F2D3758F50196A11DB11D2093380212
:100BF00080933D0290933E02A0933F02B093400247
:100C00008091390290913A02A0913B02B0913C024E
:100C10000196A11DB11D8093390290933A02A093D1
:100C20003B02B0933C02BF91AF919F918F913F9156
:100C30002F910F900FBE0F901F90189526E8230F4D
:100C40000296A11DB11DD2CF1F920F920FB60F9227
:100C500011242F933F934F935F936F937F938F93C1
:100C60009F93AF93BF93EF93FF9381E492E00E9431
:100C70002D02FF91EF91BF91AF919F918F917F9145
:100C80006F915F914F913F912F910F900FBE0F90F9
:100C90001F9018951F920F920FB60F9211242F9349
:100CA0008F939F93EF93FF93E0915102F091520243
:100CB0008081E0915702F091580282FD1BC0908123
:100CC00080915A028F5F8F7320915B02821741F0EF
:100CD000E0915A02F0E0EF5BFD4F958F80935A024E
:100CE000FF91EF919F918F912F910F900FBE0F90D9
:100CF0001F9018958081F4CF1F920F920FB60F921C
:100D000011242F933F934F935F936F937F938F9310
:100D10009F93AF93BF93EF93FF938091B900887F28
:100D2000803609F44AC0F0F5883209F4A7C018F5F6
:100D3000803109F49BC0B8F4882309F4F9C08830E5
:100D400009F494C0FF91EF91BF91AF919F918F9162
:100D50007F916F915F914F913F912F910F900FBEB7
:100D60000F901F901895883109F488C0803251F790
:100D70008093060214C0803409F49DC040F480338F
:100D8000B9F38833F9F68093060285ECB0C080355C
:100D900009F485C0883509F496C0883499F60E9414
:100DA000A205D0CF883909F48CC038F5883729F0EE
:100DB00050F4883611F0803729F683E080930802DA
:100DC0001092E10157C0883809F47BC0803919F0CE
:100DD000803809F0B7CF8091E101803208F071C00E
:100DE000E091E10181E08E0F8093E1018091BB00F1
:100DF000F0E0EF53FE4F80833DC0803B39F0E0F4DC
:100E0000803A09F479C0883A09F09CCF84E0809355
:100E100008021092C0011092BF01E0913202F091DD
:100E2000330209958091BF0181110FC081E0809349
:100E3000BF0110929F0109C0803C09F4A6CF883CF5
:100E400009F4A3CF883B09F07DCFE091C00181E098
:100E50008E0F8093C001F0E0E156FE4F80818093B9
:100E6000BB009091C0018091BF0129C08091E30136
:100E70008093BB0085EC8093BC0064CF9091050209
:100E800080910402981758F5E091050281E08E0FD9
:100E900080930502F0E0EC51FE4F8081E9CFE091B4
:100EA000050281E08E0F809305028091BB00F0E087
:100EB000EC51FE4F808390910502809104029817B7
:100EC000C8F285E8D8CFE091050281E08E0F8093CB
:100ED00005028091BB00F0E0EC51FE4F80838091D1
:100EE000070281115CCF81E08093E20184EA809364
:100EF000BC001092080226CF85EC8093BC001092B3
:100F000008028091E101803230F4E091E101F0E0EB
:100F1000EF53FE4F10826091E10170E0E0913002EA
:100F2000F091310281EC91E009951092E1010ACF34
:100F30001092060234CFE1E4F2E01382128288EECE
:100F400093E0A0E0B0E084839583A683B78320E19B
:100F500031E03183208325EC30E03587248724EC91
:100F600030E03787268720EC30E0318B208B21EC76
:100F700030E0338B228B22EC30E0358B248B26EC57
:100F800030E0378B268B118E128E138E148EEEED81
:100F9000F2E01382128284839583A683B78382E270
:100FA00091E091838083EDE3F3E01382128284E386
:100FB00091E09183808380E2848380E1808782E076
:100FC0008187128688E08387E1E3F3E01182108253
:100FD000128214821382118613861286E6E3F3E0EE
:100FE00081818F778183838180788F608383828101
:100FF00080788F608283E5E2F3E0118210821282B2
:1010000014821382118613861286EAE2F3E081814C
:101010008F778183838180788F60838382818078DA
:101020008F608283E9E1F3E01182108212821482E0
:101030001382118613861286EEE1F3E081818F77A9
:101040008183838180788F608383828180788F60C1
:101050008283EDE0F3E01182108212821482138207
:10106000118613861286E2E1F3E081818F77818316
:10107000838180788F608383828180788F60828390
:10108000E1E0F3E011821082128214821382118651
:1010900013861286E6E0F3E081818F778183838176
:1010A00080788F608383828180788F608283E5EF90
:1010B000F2E011821082128214821382118613864A
:1010C0001286EAEFF2E081818F77818383818078D5
:1010D0008F608383828180788F608283EAEEF2E082
:1010E00080E091E0918380831382128284E190E01A
:1010F0009583848316820895789484B5826084BD34
:1011000084B5816084BD85B5826085BD85B581600B
:1011100085BD80916E00816080936E001092810089
:101120008091810082608093810080918100816044
:101130008093810080918000816080938000809105
:10114000B10084608093B1008091B0008160809391
:10115000B00080917A00846080937A0080917A0058
:10116000826080937A0080917A00816080937A0017
:1011700080917A00806880937A001092C100E0919B
:101180005102F091520282E08083E0914D02F09191
:101190004E021082E0914F02F09150028FEC80835A
:1011A00010925902E0915502F091560286E0808338
:1011B000E0915302F0915402808180618083E0913C
:1011C0005302F0915402808188608083E091530241
:1011D000F0915402808180688083E0915302F09105
:1011E000540280818F7D80831092370210923602E4
:1011F00010923502109234020E94E4028DEA91E0CE
:1012000090933302809332028EEA91E09093310200
:10121000809330021092420380914603823018F08E
:1012200098E09093420390914703992339F08130DD
:1012300029F48091420384608093420362E370E06A
:1012400080E090E00E947B01609148038DE393E091
:101250000E94A90368EE73E080E090E00E947B01A9
:1012600060E38DE393E00E946105CBE4D6E4CE0118
:101270000197F1F760E38DE393E00E946105219708
:10128000F1F760E38DE393E00E94610583E592E06E
:101290000197F1F760E28DE393E00E9461056091B0
:1012A0004203606240E08DE393E00E947A0584E0AF
:1012B0008093430340E06CE08DE393E00E947A0565
:1012C0000E94910582E08093440340E066E08DE354
:1012D00093E00E947A0540E062E08DE393E00E9493
:1012E0007A058BE39FE10197F1F788E0809348034B
:1012F00060E08DE393E00E94A903C0E0D0E080E0CD
:101300000E948200682F81E393E00E94930481E0B1
:101310000E948200682F85E293E00E94930482E09D
:101320000E948200682F89E193E00E94930483E089
:101330000E948200682F8DE093E00E94930484E075
:101340000E948200682F81E093E00E94930485E070
:101350000E948200682F85EF92E00E94930481E34F
:1013600093E00E944805882331F00E9491058CE3A8
:1013700091E00E94540585E293E00E94480588238D
:1013800031F00E94910587E491E00E94540589E1C3
:1013900093E00E944805882331F00E94910582E580
:1013A00091E00E9454058DE093E00E944805882357
:1013B00031F00E9491058DE591E00E94540581E095
:1013C00093E00E944805882331F00E94910588E649
:1013D00091E00E94540585EF92E00E944805882321
:1013E00031F00E94910583E791E00E945405209717
:1013F00009F485CF0E941902882309F480CF0E9446
:1014000000007DCFEE0FFF1F0590F491E02D0994B1
:04141000F894FFCF7E
:10141400FF03550365027F01DB006D00000000003F
:101424004F02AF01DC019C020D02EB01FF01000041
:1014340000007A034D03900423034603330324037B
:10144400000000009C05AF019004BC0262746E3081
:10145400556E707265730062746E31556E7072658C
:10146400730062746E32556E707265730062746ECE
:1014740033556E707265730062746E34556E70729B
:0E14840065730062746E35556E70726573008C
:00000001FF
