:100000000C9462000C948A000C948A000C948A0070
:100010000C948A000C948A000C948A000C948A0038
:100020000C948A000C948A000C948A000C948A0028
:100030000C948A000C948A000C948A000C948A0018
:100040000C9499040C948A000C9409050C94E30414
:100050000C948A000C948A000C948A000C948A00F8
:100060000C948A000C948A000000000024002700F1
:100070002A0000000000250028002B0000000000DE
:1000800023002600290004040404040404040202DA
:100090000202020203030303030301020408102007
:1000A0004080010204081020010204081020000012
:1000B0000008000201000003040700000000000027
:1000C00000003B0511241FBECFEFD8E0DEBFCDBF3F
:1000D00011E0A0E0B1E0E4E2F6E102C005900D928B
:1000E000A63FB107D9F722E0A6EFB1E001C01D920B
:1000F000AD3AB207E1F710E0C2E6D0E004C02197C4
:10010000FE010E94E509C136D107C9F70E947A05B0
:100110000C94100B0C940000833081F028F4813093
:1001200099F08230A9F008958730A9F08830C9F09D
:100130008430B1F4809180008F7D03C08091800075
:100140008F7780938000089584B58F7784BD08955C
:1001500084B58F7DFBCF8091B0008F778093B00006
:1001600008958091B0008F7DF9CFCF93DF93282F32
:1001700030E0F901E255FF4F8491F901E656FF4F57
:10018000D491F901EA57FF4FC491CC23A1F081111A
:100190000E948C00EC2FF0E0EE0FFF1FE458FF4FA1
:1001A000A591B491EC91ED2381E090E009F480E019
:1001B000DF91CF91089580E090E0FACF1F93CF9325
:1001C000DF93282F30E0F901E255FF4F8491F901C8
:1001D000E656FF4FD491F901EA57FF4FC491CC2363
:1001E000A9F0162F81110E948C00EC2FF0E0EE0F89
:1001F000FF1FEE58FF4FA591B4918FB7F894EC9183
:10020000111108C0D095DE23DC938FBFDF91CF9111
:100210001F910895DE2BF8CF3FB7F8948091FB0132
:100220009091FC01A091FD01B091FE0126B5A89B23
:1002300005C02F3F19F00196A11DB11D3FBFBA2F78
:10024000A92F982F8827BC01CD01620F711D811D38
:10025000911D42E0660F771F881F991F4A95D1F7BD
:1002600008958F929F92AF92BF92CF92DF92EF92BA
:10027000FF926B017C010E940C014B015C01C114D7
:10028000D104E104F104B9F00E940C016819790964
:100290008A099B09683E73408105910580F321E03E
:1002A000C21AD108E108F10888EE880E83E0981E92
:1002B000A11CB11CE4CFFF90EF90DF90CF90BF90D6
:1002C000AF909F908F900895AF92BF92CF92DF92A0
:1002D000EF92FF920F931F93CF93DF936C017B01FB
:1002E0008B01040F151FEB015E01AE18BF08C0178C
:1002F000D10759F06991D601ED91FC910190F081FF
:10030000E02DC6010995892B79F7C501DF91CF91C1
:100310001F910F91FF90EF90DF90CF90BF90AF9023
:100320000895FC01538D448D252F30E0842F90E0FB
:10033000821B930B541710F0CF96089501970895E0
:10034000FC01918D828D981761F0A28DAE0FBF2FA9
:10035000B11D5D968C91928D9F5F9F73928F90E0FF
:1003600008958FEF9FEF0895FC01918D828D98176E
:1003700031F0828DE80FF11D858D90E008958FEFAB
:100380009FEF0895FC01918D228D892F90E0805C74
:100390009F4F821B91098F73992708958FEF91E0EA
:1003A0000E94C20121E0892B09F420E0822F0895E8
:1003B00080E090E0892B29F00E94CE0181110C94FD
:1003C00000000895FC01A48DA80FB92FB11DA35AF8
:1003D000BF4F2C91848D90E001968F739927848F65
:1003E000A689B7892C93A089B1898C918370806488
:1003F0008C93938D848D981306C00288F389E02D29
:1004000080818F7D80830895EF92FF920F931F93D9
:10041000CF93DF93EC0181E0888F9B8D8C8D9813B7
:100420001AC0E889F989808185FF15C09FB7F894C3
:10043000EE89FF896083E889F9898081837080640F
:1004400080839FBF81E090E0DF91CF911F910F915A
:10045000FF90EF900895F62E0B8D10E00F5F1F4F69
:100460000F731127E02E8C8D8E110CC00FB607FC78
:10047000FACFE889F989808185FFF5CFCE010E9406
:10048000E201F1CFEB8DEC0FFD2FF11DE35AFF4F91
:10049000F0829FB7F8940B8FEA89FB898081806294
:1004A000CFCFCF93DF93EC01888D8823B9F0AA8951
:1004B000BB89E889F9898C9185FD03C0808186FD1F
:1004C0000DC00FB607FCF7CF8C9185FFF2CF80816E
:1004D00085FFEDCFCE010E94E201E9CFDF91CF9100
:1004E00008950895FC0101900020E9F73197AF01CC
:1004F000481B590BBC018FEF91E00C9464018F9263
:100500009F92AF92BF920F931F93CF93DF93CDB77C
:10051000DEB7A1970FB6F894DEBF0FBECDBF19A20C
:10052000423008F44AE08E010F5D1F4F842E912C5B
:10053000B12CA12CA50194010E94A409E62FB901B8
:10054000CA01EA30F4F4E05DD801EE938D01232B6B
:10055000242B252B79F790E080E0109719F0CD013E
:100560000E947202A1960FB6F894DEBF0FBECDBFF7
:10057000DF91CF911F910F91BF90AF909F908F907F
:100580000895E95CE1CFCF93DF930E947202EC0102
:1005900080E291E00E9472028C0F9D1FDF91CF914B
:1005A00008950C9472024F925F926F927F928F9295
:1005B0009F92AF92BF92CF92DF92EF92FF920F93F2
:1005C0001F93CF936B017C01742EAC019B010E94A1
:1005D0009F09882399F083E291E0CF911F910F91B9
:1005E000FF90EF90DF90CF90BF90AF909F908F9053
:1005F0007F906F905F904F900C947202460157016C
:10060000E894B7F82FEF3FEF4FE75FE7C501B4017C
:100610000E949F0981110DC02FEF3FEF4FE75FE769
:10062000C501B4010E94CE0718161CF487E291E0C0
:10063000D4CF2FEF3FEF4FE75FE4C701B6010E9431
:100640002D0918161CF48BE291E0C7CF2FEF3FEF76
:100650004FE75FECC701B6010E94CE0787FDF3CFDD
:1006600020E030E0A901C701B6010E94CE0710E0EA
:1006700000E087FF0AC06DE28FEF91E00E94040264
:100680008C01F7FAF094F7F8F094C0E060E070E0C5
:1006900080E09FE37C1641F020E030E040E251E44E
:1006A0000E94D307CF5FF6CFA70196010E94620791
:1006B0002B013C010E944C084B015C014AE00E9466
:1006C0007F027C01E00EF11ECC23C1F1C501B40113
:1006D0000E947B089B01AC01C301B2010E9461072B
:1006E0004B015C016EE28FEF91E00E940402E80E84
:1006F000F91EC15018F120E030E040E251E4C5019C
:10070000B4010E9432092B013C010E944C084B01AC
:10071000B12CA12C4AE0C501B4010E947F02E80E71
:10072000F91EC501B4010E947B089B01AC01C30105
:10073000B2010E9461074B015C01DBCFC701CF9181
:100740001F910F91FF90EF90DF90CF90BF90AF90EF
:100750009F908F907F906F905F904F900895CF9370
:10076000DF930E94D302EC0180E291E00E947202CA
:100770008C0F9D1FDF91CF910895FF920F931F93D0
:10078000CF93DF93F82E062FC7E0D0E010E061E0B2
:10079000802F0E94DE008F2D0E94B5000C2E01C01C
:1007A000880F0A94EAF7182B60E0802F0E94DE0081
:1007B000219768F7812FDF91CF911F910F91FF90C3
:1007C0000895EF92FF920F931F93CF93DF93809141
:1007D0009F020E94B500892B31F060E070E0CB01F0
:1007E0000E943101F4CFDFB7F89460919E028091AE
:1007F0009F020E94BD03082F60919E0280919F027C
:100800000E94BD03C82F60919E0280919F020E94AA
:10081000BD03182FF12CE12C8091A0028E151F042E
:1008200079F070F061E080919E020E94DE0060E04D
:1008300080919E020E94DE008FEFE81AF80AECCF4A
:10084000DFBF6C2F70E090E080E0982F872F762F2D
:100850006627802B612B000F000B10E030E020E0BA
:10086000302F222711270027602B712B822B932BEF
:10087000DF91CF911F910F91FF90EF900895CF924C
:10088000DF92EF92FF92CF93DF93C82FC12CD12C30
:100890007601D0E00E94E103C60ED71EE81EF91EC5
:1008A00060E070E0CB010E943101DF5FCD13F2CF39
:1008B0002C2F30E050E040E0C701B6010E94C6098D
:1008C000CA01B901DF91CF91FF90EF90DF90CF90F7
:1008D0000895CF92DF92EF92FF92CF93DF936B0157
:1008E0007C01F7FE1FC06DE28FEF91E00E940402D1
:1008F000EC0166277727CB016C197D098E099F09CA
:100900004AE00E947F02C80FD91F80E291E00E9456
:1009100072028C0F9D1FDF91CF91FF90EF90DF90BF
:10092000CF9008954AE00E947F02EC01EECF0C9434
:10093000870A1F920F920FB60F9211242F933F93A5
:100940008F939F93AF93BF938091F7019091F8019C
:10095000A091F901B091FA013091F60123E0230F43
:100960002D3758F50196A11DB11D2093F6018093F6
:10097000F7019093F801A093F901B093FA018091E7
:10098000FB019091FC01A091FD01B091FE01019647
:10099000A11DB11D8093FB019093FC01A093FD016B
:1009A000B093FE01BF91AF919F918F913F912F9195
:1009B0000F900FBE0F901F90189526E8230F0296F8
:1009C000A11DB11DD2CF1F920F920FB60F9211240D
:1009D0002F933F934F935F936F937F938F939F9347
:1009E000AF93BF93EF93FF938FEF91E00E94E201EB
:1009F000FF91EF91BF91AF919F918F917F916F91F7
:100A00005F914F913F912F910F900FBE0F901F90CC
:100A100018951F920F920FB60F9211242F938F9358
:100A20009F93EF93FF93E0910F02F091100280816A
:100A3000E0911502F091160282FD1BC09081809119
:100A400018028F5F8F7320911902821741F0E09195
:100A50001802F0E0E150FE4F958F80931802FF914D
:100A6000EF919F918F912F910F900FBE0F901F903C
:100A700018958081F4CFEFEFF1E01382128288EEB7
:100A800093E0A0E0B0E084839583A683B7838AE0F7
:100A900091E09183808385EC90E09587848784EC56
:100AA00090E09787868780EC90E0918B808B81EC3B
:100AB00090E0938B828B82EC90E0958B848B86EC1C
:100AC00090E0978B868B118E128E138E148EECE92C
:100AD000F2E08CE191E09183808315821682178287
:100AE000108680E090E0A0E8BFE381879287A3872B
:100AF000B4870895789484B5826084BD84B581609C
:100B000084BD85B5826085BD85B5816085BD8091D8
:100B10006E00816080936E00109281008091810050
:100B20008260809381008091810081608093810048
:100B3000809180008160809380008091B10084600A
:100B40008093B1008091B00081608093B00080916B
:100B50007A00846080937A0080917A00826080932A
:100B60007A0080917A00816080937A0080917A0087
:100B7000806880937A001092C100E0910F02F0919A
:100B80001002C2E0C083E0910B02F0910C021082CF
:100B9000E0910D02F0910E028FEC8083109217020B
:100BA000E0911302F091140286E08083E09111023B
:100BB000F0911202808180618083E0911102F091B6
:100BC0001202808188608083E0911102F09112020C
:100BD000808180688083E0911102F091120280810F
:100BE0008F7D80838FE291E00E94C3028AE491E0CE
:100BF0000E94C302C0939E0283E080939F02ECE9AF
:100C0000F0E02491E8E8F0E08491882399F090E006
:100C1000880F991FFC01E859FF4FA591B491FC0181
:100C2000EE58FF4F859194918FB7F894EC91E22B99
:100C3000EC938FBF80919F0290E0FC01E656FF4F3E
:100C400024918A579F4FFC0184918823C1F090E042
:100C5000880F991FFC01E859FF4FC591D491FC0101
:100C6000EE58FF4FA591B4919FB7F8943881822F29
:100C7000809583238883EC91E22BEC939FBF81E0E6
:100C80008093A00281E691E00E94C3028EE791E08A
:100C90000E94D1020E94E1030E94690487E891E06A
:100CA0000E94D10284E10E943F040E94690488E905
:100CB00091E00E94D10285E00E943F040091A102D0
:100CC0001091A2022091A3023091A402601B710B2B
:100CD000820B930B0E947D0842E050E00E94AF031C
:100CE00086EA91E00E94D10285E00E943F040091D3
:100CF000A1021091A2022091A3023091A402601BD4
:100D0000710B820B930B0E947D082091A5023091FC
:100D1000A6024091A7025091A8020E94D30741E089
:100D200050E00E94AF038AE69CE3A0E1B2E4809326
:100D3000A5029093A602A093A702B093A8028AE00E
:100D40000E943F040E947D080E9445086093A10212
:100D50007093A2028093A3029093A40284EB91E08B
:100D60000E94C3028EE791E00E94D1020E94E1033B
:100D70000E94690487E891E00E94D10284E10E9408
:100D80003F040E94690488E991E00E94D10285E055
:100D90000E943F040091A1021091A2022091A3029F
:100DA0003091A402601B710B820B930B0E947D0893
:100DB00042E050E00E94AF0386EA91E00E94D10237
:100DC00085E00E943F040091A1021091A2022091AF
:100DD000A3023091A402601B710B820B930B0E9443
:100DE0007D082091A5023091A6024091A702509162
:100DF000A8020E94D30741E050E00E94AF0380EDBB
:100E000091E00E94C302C0E0D0E08AED91E00E9430
:100E1000D10281E00E943F040091A1021091A20240
:100E20002091A3023091A402601B710B820B930BE3
:100E30000E947D082091A5023091A6024091A70250
:100E40005091A8020E94D30720E030E04AE754E422
:100E50000E94D30741E00E94D30289EE91E00E94F4
:100E6000D1028AE00E943F040091A1021091A202E7
:100E70002091A3023091A402601B710B820B930B93
:100E80000E947D082091A5023091A6024091A70200
:100E90005091A8020E94D30745E050E00E94AF03A2
:100EA00068E873E180E090E00E943101209709F446
:100EB000ACCF0E94CE01882309F4A7CF0E94000086
:100EC000A4CF5058BB27AA270E9479070C94F30897
:100ED0000E94E50838F00E94EC0820F039F49F3FAA
:100EE00019F426F40C94E2080EF4E095E7FB0C9458
:100EF000DC08E92F0E94040958F3BA176207730748
:100F00008407950720F079F4A6F50C9426090EF4D1
:100F1000E0950B2EBA2FA02D0B01B90190010C0109
:100F2000CA01A0011124FF27591B99F0593F50F421
:100F3000503E68F11A16F040A22F232F342F442779
:100F4000585FF3CF469537952795A795F040539571
:100F5000C9F77EF41F16BA0B620B730B840BBAF041
:100F60009150A1F0FF0FBB1F661F771F881FC2F7AC
:100F70000EC0BA0F621F731F841F48F487957795C0
:100F80006795B795F7959E3F08F0B0CF9395880F7A
:100F900008F09927EE0F9795879508950E94B80855
:100FA00008F481E008950E94E7070C94F3080E947A
:100FB000EC0858F00E94E50840F029F45F3F29F062
:100FC0000C94DC0851110C9427090C94E2080E943F
:100FD000040968F39923B1F3552391F3951B550B3D
:100FE000BB27AA2762177307840738F09F5F5F4FFC
:100FF000220F331F441FAA1FA9F335D00E2E3AF03B
:10100000E0E832D091505040E695001CCAF72BD052
:10101000FE2F29D0660F771F881FBB1F26173707A3
:101020004807AB07B0E809F0BB0B802DBF01FF27D5
:1010300093585F4F3AF09E3F510578F00C94DC08CE
:101040000C9427095F3FE4F3983ED4F38695779597
:101050006795B795F7959F5FC9F7880F911D96958E
:10106000879597F90895E1E0660F771F881FBB1FEA
:10107000621773078407BA0720F0621B730B840B97
:10108000BA0BEE1F88F7E09508950E944C0868940B
:10109000B1110C94270908950E940C0988F09F57FC
:1010A00098F0B92F9927B751B0F0E1F0660F771F8C
:1010B000881F991F1AF0BA95C9F714C0B13091F082
:1010C0000E942609B1E008950C942609672F782F15
:1010D0008827B85F39F0B93FCCF386957795679547
:1010E000B395D9F73EF490958095709561957F4FB3
:1010F0008F4F9F4F0895E89409C097FB3EF4909559
:101100008095709561957F4F8F4F9F4F9923A9F0E0
:10111000F92F96E9BB279395F6958795779567956F
:10112000B795F111F8CFFAF4BB0F11F460FF1BC0B3
:101130006F5F7F4F8F4F9F4F16C0882311F096E946
:1011400011C0772321F09EE8872F762F05C06623F4
:1011500071F096E8862F70E060E02AF09A95660FAD
:10116000771F881FDAF7880F9695879597F9089566
:10117000990F0008550FAA0BE0E8FEEF16161706A8
:10118000E807F907C0F012161306E407F50798F010
:10119000621B730B840B950B39F40A2661F0232B29
:1011A000242B252B21F408950A2609F4A140A695A5
:1011B0008FEF811D811D089597F99F6780E870E08A
:1011C00060E008959FEF80EC089500240A941616BD
:1011D000170618060906089500240A941216130625
:1011E000140605060895092E0394000C11F48823B3
:1011F00052F0BB0F40F4BF2B11F460FF04C06F5FCF
:101200007F4F8F4F9F4F089557FD9058440F551FA4
:1012100059F05F3F71F04795880F97FB991F61F078
:101220009F3F79F087950895121613061406551FEF
:10123000F2CF4695F1DF08C0161617061806991F5B
:10124000F1CF86957105610508940895E894BB2750
:1012500066277727CB0197F908950E94B80808F40C
:101260008FEF08950E9445090C94F3080E94E50849
:1012700038F00E94EC0820F0952311F00C94DC0863
:101280000C94E20811240C9427090E94040970F3BD
:10129000959FC1F3950F50E0551F629FF001729F1B
:1012A000BB27F00DB11D639FAA27F00DB11DAA1F2A
:1012B000649F6627B00DA11D661F829F2227B00D77
:1012C000A11D621F739FB00DA11D621F839FA00D02
:1012D000611D221F749F3327A00D611D231F849F52
:1012E000600D211D822F762F6A2F11249F575040A9
:1012F0009AF0F1F088234AF0EE0FFF1FBB1F661F24
:10130000771F881F91505040A9F79E3F510580F0EC
:101310000C94DC080C9427095F3FE4F3983ED4F367
:10132000869577956795B795F795E7959F5FC1F790
:10133000FE2B880F911D9695879597F908950E9429
:10134000B808880B990B0895A1E21A2EAA1BBB1BA3
:10135000FD010DC0AA1FBB1FEE1FFF1FA217B30781
:10136000E407F50720F0A21BB30BE40BF50B661F97
:10137000771F881F991F1A9469F76095709580955B
:1013800090959B01AC01BD01CF010895052E97FBFF
:101390001EF400940E94DD0957FD07D00E94A409A5
:1013A00007FC03D04EF40C94DD0950954095309520
:1013B00021953F4F4F4F5F4F0895909580957095C1
:1013C00061957F4F8F4F9F4F0895EE0FFF1F059040
:1013D000F491E02D09940F931F93CF93DF93823004
:1013E000910510F482E090E0E091AB02F091AC0244
:1013F00030E020E0B0E0A0E0309799F4211531050D
:1014000009F44AC0281B390B24303105D8F58A81EC
:101410009B816115710589F1FB0193838283FE0134
:1014200011C0408151810281138148175907E0F0B2
:101430004817590799F4109761F012960C93129778
:1014400013961C933296CF01DF91CF911F910F918C
:1014500008950093AB021093AC02F4CF211531052F
:1014600051F04217530738F0A901DB019A01BD0181
:10147000DF01F801C1CFEF01F9CF9093AC02809367
:10148000AB02CDCFFE01E20FF31F81939193225067
:10149000310939832883D7CF2091A9023091AA023C
:1014A000232B41F420910201309103013093AA02D1
:1014B0002093A902209100013091010121153105ED
:1014C00041F42DB73EB74091040150910501241B12
:1014D000350BE091A902F091AA02E217F307A0F4FC
:1014E0002E1B3F0B2817390778F0AC014E5F5F4F7A
:1014F0002417350748F04E0F5F1F5093AA02409300
:10150000A902819391939FCFF0E0E0E09CCFCF932D
:10151000DF930097E9F0FC01329713821282A091C9
:10152000AB02B091AC02ED0130E020E01097A1F4E5
:1015300020813181820F931F2091A9023091AA024C
:101540002817390709F061C0F093AA02E093A902B5
:10155000DF91CF910895EA01CE17DF07E8F54A81C0
:101560005B819E0141155105B1F7E901FB83EA83D7
:1015700049915991C40FD51FEC17FD0761F4808183
:1015800091810296840F951FE90199838883828156
:1015900093819B838A83F0E0E0E012968D919C9189
:1015A00013970097B9F52D913C911197CD010296B3
:1015B000820F931F2091A9023091AA0228173907A0
:1015C00039F6309751F51092AC021092AB02B093FD
:1015D000AA02A093A902BCCFD383C28340815181C8
:1015E000840F951FC817D90761F44E5F5F4F88813C
:1015F0009981480F591F518340838A819B8193832E
:1016000082832115310509F0B0CFF093AC02E0934D
:10161000AB029ECFFD01DC01C0CF13821282D7CF77
:04162000F894FFCF6C
:101624000000AD028000000000000402640191018A
:101634005102C201A001B40100000000710297042C
:101644000D0A006E616E00696E66006F7666004872
:10165400583731312044656D6F20627920536174AD
:1016640079616D2053696E676800496E69746961B8
:101674006C697A696E6720746865207363616C6550
:10168400004265666F72652073657474696E6720C5
:10169400757020746865207363616C653A007265C7
:1016A40061643A200909007265616420617665729B
:1016B4006167653A200909006765742076616C7575
:1016C400653A2009090067657420756E6974733A78
:1016D4002009090041667465722073657474696E2B
:1016E4006720757020746865207363616C653A00C7
:1016F40052656164696E67733A0057656967687417
:1017040020696E204B473A0900097C206176657296
:061714006167653A09005F
:00000001FF
