:100000000C9462000C948A000C948A000C948A0070
:100010000C948A000C948A000C948A000C948A0038
:100020000C948A000C948A000C948A000C948A0028
:100030000C948A000C948A000C948A000C948A0018
:100040000C9413030C948A000C9483030C945D03AA
:100050000C948A000C948A000C948A000C948A00F8
:100060000C948A000C948A000000000024002700F1
:100070002A0000000000250028002B0000000000DE
:1000800023002600290004040404040404040202DA
:100090000202020203030303030301020408102007
:1000A0004080010204081020010204081020000012
:1000B0000008000201000003040700000000000027
:1000C0000000B50311241FBECFEFD8E0DEBFCDBFC7
:1000D00011E0A0E0B1E0E2E2F3E102C005900D9290
:1000E000A034B107D9F721E0A0E4B1E001C01D922E
:1000F000AB3FB207E1F710E0C2E6D0E004C02197C1
:10010000FE010E946408C136D107C9F70E94F403BA
:100110000C948F090C940000833081F028F4813016
:1001200099F08230A9F008958730A9F08830C9F09D
:100130008430B1F4809180008F7D03C08091800075
:100140008F7780938000089584B58F7784BD08955C
:1001500084B58F7DFBCF8091B0008F778093B00006
:1001600008958091B0008F7DF9CFCF93DF93282F32
:1001700030E0F901E255FF4F8491F901E656FF4F57
:10018000D491F901EA57FF4FC491CC23A1F081111A
:100190000E948C00EC2FF0E0EE0FFF1FE458FF4FA1
:1001A000A591B491EC91ED2381E090E009F480E019
:1001B000DF91CF91089580E090E0FACF1F93CF9325
:1001C000DF93282F30E0F901E255FF4F8491F901C8
:1001D000E656FF4FD491F901EA57FF4FC491CC2363
:1001E000A9F0162F81110E948C00EC2FF0E0EE0F89
:1001F000FF1FEE58FF4FA591B4918FB7F894EC9183
:10020000111108C0D095DE23DC938FBFDF91CF9111
:100210001F910895DE2BF8CF3FB7F89480914901E4
:1002200090914A01A0914B01B0914C0126B5A89B39
:1002300005C02F3F19F00196A11DB11D3FBFBA2F78
:10024000A92F982F8827BC01CD01620F711D811D38
:10025000911D42E0660F771F881F991F4A95D1F7BD
:1002600008950C940C01AF92BF92CF92DF92EF925F
:10027000FF920F931F93CF93DF936C017B018B0150
:10028000040F151FEB015E01AE18BF08C017D107A0
:1002900059F06991D601ED91FC910190F081E02D2A
:1002A000C6010995892B79F7C501DF91CF911F917F
:1002B0000F91FF90EF90DF90CF90BF90AF90089597
:1002C000FC01538D448D252F30E0842F90E0821B5C
:1002D000930B541710F0CF96089501970895FC01E1
:1002E000918D828D981761F0A28DAE0FBF2FB11D39
:1002F0005D968C91928D9F5F9F73928F90E0089591
:100300008FEF9FEF0895FC01918D828D981731F04A
:10031000828DE80FF11D858D90E008958FEF9FEF9E
:100320000895FC01918D228D892F90E0805C9F4F74
:10033000821B91098F73992708958DE491E00E94A3
:10034000910121E0892B09F420E0822F089580E0BB
:1003500090E0892B29F00E949D0181110C940000EE
:100360000895FC01A48DA80FB92FB11DA35ABF4F4A
:100370002C91848D90E001968F739927848FA689A4
:10038000B7892C93A089B1898C91837080648C93F8
:10039000938D848D981306C00288F389E02D8081A7
:1003A0008F7D80830895EF92FF920F931F93CF93D9
:1003B000DF93EC0181E0888F9B8D8C8D98131AC0A0
:1003C000E889F989808185FF15C09FB7F894EE8987
:1003D000FF896083E889F9898081837080648083E4
:1003E0009FBF81E090E0DF91CF911F910F91FF902F
:1003F000EF900895F62E0B8D10E00F5F1F4F0F73D7
:100400001127E02E8C8D8E110CC00FB607FCFACF91
:10041000E889F989808185FFF5CFCE010E94B1017D
:10042000F1CFEB8DEC0FFD2FF11DE35AFF4FF08262
:100430009FB7F8940B8FEA89FB8980818062CFCFC8
:10044000CF93DF93EC01888D8823B9F0AA89BB890B
:10045000E889F9898C9185FD03C0808186FD0DC0F6
:100460000FB607FCF7CF8C9185FFF2CF808185FF17
:10047000EDCFCE010E94B101E9CFDF91CF91089578
:100480000895FF920F931F93CF93DF93F82E062FBB
:10049000C7E0D0E010E061E0802F0E94DE008F2DE9
:1004A0000E94B5000C2E01C0880F0A94EAF7182BA1
:1004B00060E0802F0E94DE00219768F7812FDF9196
:1004C000CF911F910F91FF900895EF92FF920F939C
:1004D0001F93CF93DF938091ED010E94B500892B8C
:1004E00019F00E943101F7CFDFB7F8946091EC0169
:1004F0008091ED010E944102082F6091EC018091F2
:10050000ED010E944102C82F6091EC018091ED0144
:100510000E944102182FF12CE12C8091EE018E15E2
:100520001F0479F070F061E08091EC010E94DE0020
:1005300060E08091EC010E94DE008FEFE81AF80A7B
:10054000ECCFDFBF6C2F70E090E080E0982F872F1A
:10055000762F6627802B612B000F000B10E030E018
:1005600020E0302F222711270027602B712B822BB0
:10057000932BDF91CF911F910F91FF90EF900895F2
:10058000FC0101900020E9F73197AF01481B590B9E
:10059000BC018DE491E00C9433018F929F92AF9255
:1005A000BF920F931F93CF93DF93CDB7DEB7A19781
:1005B0000FB6F894DEBF0FBECDBF19A2423008F4CB
:1005C0004AE08E010F5D1F4F842E912CB12CA12C7F
:1005D000A50194010E942308E62FB901CA01EA305F
:1005E000F4F4E05DD801EE938D01232B242B252B11
:1005F00079F790E080E0109719F0CD010E94C002D9
:10060000A1960FB6F894DEBF0FBECDBFDF91CF919C
:100610001F910F91BF90AF909F908F900895E95CCC
:10062000E1CF0C9406091F920F920FB60F9211247E
:100630002F933F938F939F93AF93BF9380914501E7
:1006400090914601A0914701B09148013091440139
:1006500023E0230F2D3758F50196A11DB11D2093DE
:1006600044018093450190934601A0934701B093C4
:1006700048018091490190914A01A0914B01B091AC
:100680004C010196A11DB11D8093490190934A012F
:10069000A0934B01B0934C01BF91AF919F918F916B
:1006A0003F912F910F900FBE0F901F90189526E845
:1006B000230F0296A11DB11DD2CF1F920F920FB62C
:1006C0000F9211242F933F934F935F936F937F93D8
:1006D0008F939F93AF93BF93EF93FF938DE491E03C
:1006E0000E94B101FF91EF91BF91AF919F918F91C6
:1006F0007F916F915F914F913F912F910F900FBE1E
:100700000F901F9018951F920F920FB60F92112401
:100710002F938F939F93EF93FF93E0915D01F0915F
:100720005E018081E0916301F091640182FD1BC054
:100730009081809166018F5F8F732091670182178E
:1007400041F0E0916601F0E0E35BFE4F958F80930E
:100750006601FF91EF919F918F912F910F900FBEA6
:100760000F901F9018958081F4CFEDE4F1E0138293
:10077000128288EE93E0A0E0B0E084839583A683A4
:10078000B7838AE091E09183808385EC90E0958740
:10079000848784EC90E09787868780EC90E0918B4B
:1007A000808B81EC90E0938B828B82EC90E0958B38
:1007B000848B86EC90E0978B868B118E128E138E35
:1007C000148EEAEEF1E08CE191E091838083158252
:1007D00016821782108680E090E0A0E8BFE3818750
:1007E0009287A387B4870895789484B5826084BD86
:1007F00084B5816084BD85B5826085BD85B5816025
:1008000085BD80916E00816080936E0010928100A2
:10081000809181008260809381008091810081605D
:10082000809381008091800081608093800080911E
:10083000B10084608093B1008091B00081608093AA
:10084000B00080917A00846080937A0080917A0071
:10085000826080937A0080917A00816080937A0030
:1008600080917A00806880937A001092C100E091B4
:100870005D01F0915E0192E09083E0915901F09169
:100880005A011082E0915B01F0915C018FEC808352
:1008900010926501E0916101F091620186E0808330
:1008A000E0915F01F0916001808180618083E0913F
:1008B0005F01F0916001808188608083E0915F0139
:1008C000F0916001808180688083E0915F01F09108
:1008D000600180818F7D80839093EC0183E0809321
:1008E000ED01ECE9F0E02491E8E8F0E08491882360
:1008F00099F090E0880F991FFC01E859FF4FA591EE
:10090000B491FC01EE58FF4F859194918FB7F89404
:10091000EC91E22BEC938FBF8091ED0190E0FC0114
:10092000E656FF4F24918A579F4FFC0184918823FC
:10093000C1F090E0880F991FFC01E859FF4FC59165
:10094000D491FC01EE58FF4FA591B4919FB7F89454
:100950003881822F809583238883EC91E22BEC935E
:100960009FBF81E08093EE0180E090E0A0E8BFE3CC
:100970008093F3019093F401A093F501B093F601F5
:10098000CAE0C12CD12C76010E946502C60ED71E8A
:10099000E81EF91E0E943101C150B1F7C701B6012E
:1009A0002AE030E040E050E00E944508CA01B90169
:1009B0000E94FC060E94C4066093EF017093F00150
:1009C0008093F1019093F20188E491EDAEE9B4E4F3
:1009D0008093F3019093F401A093F501B093F60195
:1009E000C0E0D0E080E291E00E94C0020AE010E0A6
:1009F0000E9465026B017C010E9431018091EF0130
:100A00009091F001A091F101B091F201A70196013E
:100A1000281B390B4A0B5B0BCA01B9010E94FC066B
:100A20002091F3013091F4014091F5015091F601CC
:100A30000E945206609340017093410180934201ED
:100A4000909343010150110999F628E73BE740E1F3
:100A50005DE30E94B1076B017C014B015C01AC01BD
:100A60009B010E941E088823B9F08AE291E00E944F
:100A7000C00286E391E00E94C0028DE391E00E94F3
:100A8000C002209709F4AECF0E949D01882309F48B
:100A9000A9CF0E940000A6CF26013701E89477F87D
:100AA0002FEF3FEF4FE75FE7C301B2010E941E083F
:100AB00081110DC02FEF3FEF4FE75FE7C301B20198
:100AC0000E944D0618161CF48EE291E0D0CF2FEF55
:100AD0003FEF4FE75FE4C701B6010E94AC0718166D
:100AE0001CF482E391E0C3CF2FEF3FEF4FE75FECC1
:100AF000C701B6010E944D0687FDF3CF20E030E02C
:100B0000A901C701B6010E944D0687FF0BC06DE227
:100B10008DE491E00E94D30146015701B7FAB094E9
:100B2000B7F8B0942AE037ED43EA5BE3C501B401BE
:100B30000E94E1054B015C010E94CB066B017C0128
:100B40000E94FA069B01AC01C501B4010E94E005B8
:100B50004B015C014AE0C701B6010E94CD026EE282
:100B60008DE491E00E94D30120E030E040E251E4C6
:100B7000C501B4010E94B1074B015C010E94CB0684
:100B80006B01F12CE12C4AE0C701B6010E94CD02B5
:100B9000C701B6010E94FA069B01AC01C501B40170
:100BA0000E94E00520E030E040E251E40E94B107FD
:100BB0000E94CB0690E080E04AE00E94CD0259CF2F
:100BC0005058BB27AA270E94F8050C9472070E9470
:100BD000640738F00E946B0720F039F49F3F19F446
:100BE00026F40C9461070EF4E095E7FB0C945B0788
:100BF000E92F0E94830758F3BA1762077307840727
:100C0000950720F079F4A6F50C94A5070EF4E0956D
:100C10000B2EBA2FA02D0B01B90190010C01CA01B6
:100C2000A0011124FF27591B99F0593F50F4503E61
:100C300068F11A16F040A22F232F342F4427585F53
:100C4000F3CF469537952795A795F0405395C9F76B
:100C50007EF41F16BA0B620B730B840BBAF0915023
:100C6000A1F0FF0FBB1F661F771F881FC2F70EC0C2
:100C7000BA0F621F731F841F48F487957795679595
:100C8000B795F7959E3F08F0B0CF9395880F08F081
:100C90009927EE0F9795879508950E94370708F4D6
:100CA00081E008950E9466060C9472070E946B070B
:100CB00058F00E94640740F029F45F3F29F00C943B
:100CC0005B0751110C94A6070C9461070E948307DF
:100CD00068F39923B1F3552391F3951B550BBB276B
:100CE000AA2762177307840738F09F5F5F4F220FB0
:100CF000331F441FAA1FA9F335D00E2E3AF0E0E8A7
:100D000032D091505040E695001CCAF72BD0FE2FF0
:100D100029D0660F771F881FBB1F26173707480784
:100D2000AB07B0E809F0BB0B802DBF01FF2793583C
:100D30005F4F3AF09E3F510578F00C945B070C949E
:100D4000A6075F3FE4F3983ED4F3869577956795C1
:100D5000B795F7959F5FC9F7880F911D9695879571
:100D600097F90895E1E0660F771F881FBB1F621790
:100D700073078407BA0720F0621B730B840BBA0B4E
:100D8000EE1F88F7E09508950E94CB066894B11194
:100D90000C94A60708950E948B0788F09F5798F03F
:100DA000B92F9927B751B0F0E1F0660F771F881F70
:100DB000991F1AF0BA95C9F714C0B13091F00E948A
:100DC000A507B1E008950C94A507672F782F882711
:100DD000B85F39F0B93FCCF3869577956795B395B1
:100DE000D9F73EF490958095709561957F4F8F4F20
:100DF0009F4F0895E89409C097FB3EF49095809525
:100E0000709561957F4F8F4F9F4F9923A9F0F92FD0
:100E100096E9BB279395F695879577956795B7954E
:100E2000F111F8CFFAF4BB0F11F460FF1BC06F5F34
:100E30007F4F8F4F9F4F16C0882311F096E911C046
:100E4000772321F09EE8872F762F05C0662371F067
:100E500096E8862F70E060E02AF09A95660F771F7B
:100E6000881FDAF7880F9695879597F90895990F57
:100E70000008550FAA0BE0E8FEEF16161706E80764
:100E8000F907C0F012161306E407F50798F0621B85
:100E9000730B840B950B39F40A2661F0232B242B5A
:100EA000252B21F408950A2609F4A140A6958FEF79
:100EB000811D811D089597F99F6780E870E060E0CB
:100EC00008959FEF80EC089500240A9416161706E3
:100ED00018060906089500240A941216130614062B
:100EE00005060895092E0394000C11F4882352F08E
:100EF000BB0F40F4BF2B11F460FF04C06F5F7F4F46
:100F00008F4F9F4F089557FD9058440F551F59F02C
:100F10005F3F71F04795880F97FB991F61F09F3FE6
:100F200079F087950895121613061406551FF2CF0F
:100F30004695F1DF08C0161617061806991FF1CF5F
:100F400086957105610508940895E894BB27662786
:100F50007727CB0197F908950E94370708F48FEFA0
:100F600008950E94C4070C9472070E94640738F029
:100F70000E946B0720F0952311F00C945B070C94F2
:100F8000610711240C94A6070E94830770F3959FB4
:100F9000C1F3950F50E0551F629FF001729FBB2770
:100FA000F00DB11D639FAA27F00DB11DAA1F649F0C
:100FB0006627B00DA11D661F829F2227B00DA11DBF
:100FC000621F739FB00DA11D621F839FA00D611D45
:100FD000221F749F3327A00D611D231F849F600D66
:100FE000211D822F762F6A2F11249F5750409AF08F
:100FF000F1F088234AF0EE0FFF1FBB1F661F771F1B
:10100000881F91505040A9F79E3F510580F00C94E5
:101010005B070C94A6075F3FE4F3983ED4F38695F4
:1010200077956795B795F795E7959F5FC1F7FE2B85
:10103000880F911D9695879597F908950E94370717
:10104000880B990B0895A1E21A2EAA1BBB1BFD0168
:101050000DC0AA1FBB1FEE1FFF1FA217B307E40797
:10106000F50720F0A21BB30BE40BF50B661F771FEF
:10107000881F991F1A9469F76095709580959095CF
:101080009B01AC01BD01CF010895052E97FB1EF415
:1010900000940E945C0857FD07D00E94230807FCBB
:1010A00003D04EF40C945C085095409530952195F2
:1010B0003F4F4F4F5F4F0895909580957095619584
:1010C0007F4F8F4F9F4F0895EE0FFF1F0590F491B4
:1010D000E02D09940F931F93CF93DF9382309105F6
:1010E00010F482E090E0E091F901F091FA0130E033
:1010F00020E0B0E0A0E0309799F42115310509F423
:101100004AC0281B390B24303105D8F58A819B81D0
:101110006115710589F1FB0193838283FE0111C082
:10112000408151810281138148175907E0F0481727
:10113000590799F4109761F012960C931297139631
:101140001C933296CF01DF91CF911F910F9108959B
:101150000093F9011093FA01F4CF2115310551F0F4
:101160004217530738F0A901DB019A01BD01DF01E5
:10117000F801C1CFEF01F9CF9093FA018093F90103
:10118000CDCFFE01E20FF31F8193919322503109DD
:1011900039832883D7CF2091F7013091F801232B91
:1011A00041F420910201309103013093F801209322
:1011B000F70120910001309101012115310541F421
:1011C0002DB73EB74091040150910501241B350B0A
:1011D000E091F701F091F801E217F307A0F42E1B5C
:1011E0003F0B2817390778F0AC014E5F5F4F24178B
:1011F000350748F04E0F5F1F5093F8014093F701F9
:10120000819391939FCFF0E0E0E09CCFCF93DF9369
:101210000097E9F0FC01329713821282A091F90144
:10122000B091FA01ED0130E020E01097A1F42081A7
:101230003181820F931F2091F7013091F801281717
:10124000390709F061C0F093F801E093F701DF91ED
:10125000CF910895EA01CE17DF07E8F54A815B8157
:101260009E0141155105B1F7E901FB83EA834991DC
:101270005991C40FD51FEC17FD0761F4808191814E
:101280000296840F951FE901998388838281938157
:101290009B838A83F0E0E0E012968D919C911397F6
:1012A0000097B9F52D913C911197CD010296820FCF
:1012B000931F2091F7013091F8012817390739F66B
:1012C000309751F51092FA011092F901B093F8019C
:1012D000A093F701BCCFD383C28340815181840F97
:1012E000951FC817D90761F44E5F5F4F88819981B8
:1012F000480F591F518340838A819B819383828346
:101300002115310509F0B0CFF093FA01E093F9010E
:101310009ECFFD01DC01C0CF13821282D7CFF8949B
:02132000FFCFFD
:101322000000FB01800000000000D30133016001D6
:10133200200291016F0183010000000040021103AD
:1013420052656164696E673A20006E616E00696E73
:1013520066006F766600206772616D73000D0A0089
:00000001FF
