:020000040000FA
:100000000C9458000C9480000C9480000C94800098
:100010000C9480000C9480000C9480000C94800060
:100020000C9480000C9480000C9480000C94800050
:100030000C9480000C9480000C9480000C94800040
:100040000C9499030C9480000C9480000C94800014
:100050000C9480000C9480000C9480000C94800020
:100060000C94E3030C94800000000000250028009D
:100070002B00040404040404040402020202020229
:10008000030303030303010204081020408001025C
:1000900004081020010204081020000000080002DB
:1000A000010000030407000000000000000002053A
:1000B00011241FBECFEFD8E0DEBFCDBF11E0A0E01E
:1000C000B1E0E6E5FCE002C005900D92A632B10772
:1000D000D9F722E0A6E2B1E001C01D92A130B2073B
:1000E000E1F710E0C8E5D0E004C02197FE010E94CE
:1000F0002306C735D107C9F70E9422050C942906AB
:100100000C94000090E0FC01E656FF4F2491FC01A6
:10011000EA57FF4F3491FC01EE58FF4FE491EE2374
:10012000C9F0222339F0233001F1A8F4213019F16C
:10013000223029F1F0E0EE0FFF1FE859FF4FA591A3
:10014000B4918FB7F894EC91611126C030953E239D
:100150003C938FBF08952730A9F02830C9F0243090
:1001600049F7809180008F7D03C0809180008F7758
:1001700080938000DFCF84B58F7784BDDBCF84B5DB
:100180008F7DFBCF8091B0008F778093B000D2CF6E
:100190008091B0008F7DF9CF3E2BDACF3FB7F89436
:1001A0008091E5019091E601A091E701B091E8010D
:1001B00026B5A89B05C02F3F19F00196A11DB11DC2
:1001C0003FBFBA2FA92F982F8827BC01CD01620FFE
:1001D000711D811D911D42E0660F771F881F991FB9
:1001E0004A95D1F708958F929F92AF92BF92CF9286
:1001F000DF92EF92FF924B015C010E94CE006B01F7
:100200007C010E94CE006C197D098E099F09683E11
:10021000734081059105A8F321E0821A9108A10895
:10022000B10888EEC80E83E0D81EE11CF11C8114D1
:100230009104A104B10429F7FF90EF90DF90CF90D3
:10024000BF90AF909F908F9008950895089508955E
:10025000AF92BF92CF92DF92EF92FF920F931F93D4
:10026000CF93DF936C017B018B01040F151FEB0112
:100270005E01AE18BF08C017D10759F06991D601C9
:10028000ED91FC910190F081E02DC6010995892B3B
:1002900079F7C501DF91CF911F910F91FF90EF90FA
:1002A000DF90CF90BF90AF9008950895209167019F
:1002B000260F3327331F21323105ECF42091B00192
:1002C000FC0190E080E0243069F082E00895A09184
:1002D00067012191AC01495B5E4FA40FB52FB11DA1
:1002E0002C930196861798F380916701680F6093AD
:1002F000670180E0089581E008951092B00181E0E7
:100300008093AF0110928A0161E082E10E94820035
:1003100061E083E10E948200E9EBF0E080818E7F62
:10032000808380818D7F808388E48093B80085E41A
:100330008093BC000895CF93DF9391E090934601A2
:100340008823B9F0C091B800D091BA008091BC0068
:100350008A7B8093BC0060E082E10E94820060E0C2
:1003600083E10E9482000E947D01D093BA00C09375
:10037000B800DF91CF910895E091DF018091DE0117
:10038000E81730F4F0E0EA5DFE4F808190E00895D8
:100390008FEF9FEF08959091DF018091DE012FEFA5
:1003A0003FEF981748F4E92FF0E0EA5DFE4F208117
:1003B00030E09F5F9093DF01C90108958091DE01D5
:1003C0009091DF01891B990B0895CF92DF92EF92F4
:1003D000FF920F931F93CF93DF937C01CB018A0190
:1003E0002091B601222389F0EB016B01C40ED51ECA
:1003F000CC15DD0569F06991D701ED91FC91019073
:10040000F081E02DC7010995F3CF642F0E945601BA
:10041000C801DF91CF911F910F91FF90EF90DF9076
:10042000CF900895CF93DF931F92CDB7DEB7698346
:100430002091B6012223F9F02091DC01203258F0FE
:1004400021E030E0FC013383228390E080E00F90D4
:10045000DF91CF9108958091DD01E82FF0E0E9541C
:10046000FE4F998190838F5F8093DD018093DC0143
:1004700081E090E0ECCF61E0CE0101960E94560150
:10048000F7CFCF92DF92EF92FF920F931F93CF930C
:10049000DF93FC01C48121E02093B601C093D70112
:1004A0001092DD011092DC018385682B89EE91E0CA
:1004B0000E941202D091DC01D13208F092C00E9459
:1004C000CE006B017C018091B001811165C082E09A
:1004D0008093B00181E08093AF018FEF8093AE01F4
:1004E0001092AD01D093AC01A7EBB1E0ECE8F1E0E4
:1004F00080E0D81385C010928B0180918B01CC0FC6
:10050000C82BC0938B0180918A01813009F07CC097
:1005100010928A010E94CE006B017C0180918B01B8
:100520008093BB008091B2019091B301A091B4017E
:10053000B091B501892B8A2B8B2B99F00E94CE00AC
:100540000091B2011091B3012091B4013091B50135
:100550006C197D098E099F090617170728073907A7
:10056000E0F18091BC0083FDD9CF85EC8093BC0085
:100570000E94CE006B017C018091B001823009F4B1
:1005800045C08091AE018F3F61F18091AE01803214
:1005900041F18091AE0125C08091B2019091B301EB
:1005A000A091B401B091B501892B8A2B8B2B09F452
:1005B0008ACF0E94CE000091B2011091B301209128
:1005C000B4013091B5016C197D098E099F09061798
:1005D00017072807390708F076CF8091B1010E94EC
:1005E0009B011092DD011092DC011092B601DF91A7
:1005F000CF911F910F91FF90EF90DF90CF900895D2
:100600009D9191938F5F75CF85EEB0CF8091B201B0
:100610009091B301A091B401B091B501892B8A2BBF
:100620008B2B09F4A9CF0E94CE000091B20110914A
:10063000B3012091B4013091B5016C197D098E0987
:100640009F09061717072807390708F095CFC5CF68
:1006500090E080E008950F931F93CF938C01C62FF5
:100660000E9441026C2F6460C8010E9441026C2FFD
:100670006B7FC8010E94410283EC90E00197F1F783
:10068000CF911F910F9108950F931F93CF93DF93F5
:100690008C01D62FC42F607F642B0E942B0380E136
:1006A000D89FB00111246C2BC801DF91CF911F910D
:1006B0000F910C942B0341E00E94440381E090E0F1
:1006C000089585ED8093BC008091B2019091B301B3
:1006D000A091B401B091B5010796A11DB11D23E011
:1006E000B695A795979587952A95D1F72091BC0047
:1006F00024FD03C01092B00108954091B2015091C1
:10070000B3016091B4017091B501452B462B472B85
:1007100069F30097A105B10541F02AE22A95F1F7A6
:1007200000C00197A109B109E1CF8091B1010C94FA
:100730009B011F920F920FB60F9211242F933F939C
:100740008F939F93AF93BF938091E1019091E201CA
:10075000A091E301B091E4013091E00123E0230F87
:100760002D3758F50196A11DB11D2093E00180930E
:10077000E1019093E201A093E301B093E401809141
:10078000E5019091E601A091E701B091E8010196A1
:10079000A11DB11D8093E5019093E601A093E701AF
:1007A000B093E801BF91AF919F918F913F912F91AD
:1007B0000F900FBE0F901F90189526E8230F0296FA
:1007C000A11DB11DD2CF1F920F920FB60F9211240F
:1007D0002F933F934F935F936F937F938F939F9349
:1007E000AF93BF93EF93FF938091B900887F8036DA
:1007F00009F44AC0F0F5883209F4A7C018F5803131
:1008000009F49BC0B8F4882309F4F9C0883009F4CE
:1008100094C0FF91EF91BF91AF919F918F917F9184
:100820006F915F914F913F912F910F900FBE0F905D
:100830001F901895883109F488C0803251F7809351
:10084000AE0114C0803409F49DC040F48033B9F384
:100850008833F9F68093AE0185ECB0C0803509F499
:1008600085C0883509F496C0883499F60E946103E2
:10087000D0CF883909F48CC038F5883729F050F486
:10088000883611F0803729F683E08093B00110920A
:10089000890157C0883809F47BC0803919F0803845
:1008A00009F0B7CF80918901803208F071C0E091E2
:1008B000890181E08E0F809389018091BB00F0E077
:1008C000E759FE4F80833DC0803B39F0E0F4803A29
:1008D00009F479C0883A09F09CCF84E08093B00194
:1008E0001092680110926701E091DA01F091DB014A
:1008F00009958091670181110FC081E080936701A4
:100900001092470109C0803C09F4A6CF883C09F445
:10091000A3CF883B09F07DCFE091680181E08E0F85
:1009200080936801F0E0E95BFE4F80818093BB001B
:10093000909168018091670129C080918B0180931B
:10094000BB0085EC8093BC0064CF9091AD01809199
:10095000AC01981758F5E091AD0181E08E0F8093BE
:10096000AD01F0E0E457FE4F8081E9CFE091AD01A9
:1009700081E08E0F8093AD018091BB00F0E0E457E1
:10098000FE4F80839091AD018091AC019817C8F221
:1009900085E8D8CFE091AD0181E08E0F8093AD0165
:1009A0008091BB00F0E0E457FE4F80838091AF015F
:1009B00081115CCF81E080938A0184EA8093BC003E
:1009C0001092B00126CF85EC8093BC001092B0014C
:1009D00080918901803230F4E0918901F0E0E7599B
:1009E000FE4F10826091890170E0E091D801F09192
:1009F000D90189E691E00995109289010ACF1092F8
:100A0000AE0134CFE9EEF1E01382128288EE93E07A
:100A1000A0E0B0E084839583A683B78384E091E06F
:100A200091838083E5EFF1E01382128286E191E009
:100A30009183808387E2848380E1818782E082875B
:100A400013860895CF93DF93CDB7DEB72C970FB6FB
:100A5000F894DEBF0FBECDBF789484B5826084BDAC
:100A600084B5816084BD85B5826085BD85B58160B2
:100A700085BD80916E00816080936E001092810030
:100A800080918100826080938100809181008160EB
:100A900080938100809180008160809380008091AC
:100AA000B10084608093B1008091B0008160809338
:100AB000B00080917A00846080937A0080917A00FF
:100AC000826080937A0080917A00816080937A00BE
:100AD00080917A00806880937A001092C100109211
:100AE000F8011092F70180E28093F9018E818093E2
:100AF000FA018F818093FB0188858093FC018985B1
:100B00008093FD0180E18093FE0182E08093FF01EC
:100B1000109200021092DF011092DE011092DD01AE
:100B20001092DC010E947D0186E291E09093DB014E
:100B30008093DA0187E291E09093D9018093D80104
:100B40001092FA018091FF01823018F098E09093A2
:100B5000FA018093FD0162E370E080E090E00E9482
:100B6000F3006091000285EF91E00E94410268EE7F
:100B700073E080E090E00E94F30060E385EF91E095
:100B80000E942B030BE416E4C8010197F1F760E320
:100B900085EF91E00E942B03C8010197F1F760E314
:100BA00085EF91E00E942B0383E592E00197F1F736
:100BB00060E285EF91E00E942B036091FA01606290
:100BC00040E085EF91E00E94440384E08093FB01C4
:100BD00040E06CE085EF91E00E94440340E061E07A
:100BE00085EF91E00E9444030BE31FE1C8010197E8
:100BF000F1F782E08093FC0140E066E085EF91E050
:100C00000E94440340E062E085EF91E00E944403CB
:100C1000C8010197F1F788E08093000260E085EF5A
:100C200091E00E94410247E050E06EE171E085EF03
:100C300091E00E94280100E010E001151105E9F3A0
:100C40000E940000FACFEE0FFF1F0590F491E02DF7
:100C50000994F894FFCF000000001202E501280378
:100C60002501DE01CB01BC01000000005B0328016F
:0C0C700028035501536372696E5F310068
:107E0000112484B714BE81FFF0D085E080938100F7
:107E100082E08093C00088E18093C10086E0809377
:107E2000C20080E18093C4008EE0C9D0259A86E02C
:107E300020E33CEF91E0309385002093840096BBD3
:107E4000B09BFECF1D9AA8958150A9F7CC24DD24C4
:107E500088248394B5E0AB2EA1E19A2EF3E0BF2EE7
:107E6000A2D0813461F49FD0082FAFD0023811F036
:107E7000013811F484E001C083E08DD089C08234E0
:107E800011F484E103C0853419F485E0A6D080C0E4
:107E9000853579F488D0E82EFF2485D0082F10E0AE
:107EA000102F00270E291F29000F111F8ED06801E7
:107EB0006FC0863521F484E090D080E0DECF843638
:107EC00009F040C070D06FD0082F6DD080E0C81688
:107ED00080E7D80618F4F601B7BEE895C0E0D1E017
:107EE00062D089930C17E1F7F0E0CF16F0E7DF06D8
:107EF00018F0F601B7BEE89568D007B600FCFDCFD4
:107F0000A601A0E0B1E02C9130E011968C91119780
:107F100090E0982F8827822B932B1296FA010C0160
:107F200087BEE89511244E5F5F4FF1E0A038BF0790
:107F300051F7F601A7BEE89507B600FCFDCF97BE46
:107F4000E89526C08437B1F42ED02DD0F82E2BD052
:107F50003CD0F601EF2C8F010F5F1F4F84911BD097
:107F6000EA94F801C1F70894C11CD11CFA94CF0C13
:107F7000D11C0EC0853739F428D08EE10CD085E9AC
:107F80000AD08FE07ACF813511F488E018D01DD067
:107F900080E101D065CF982F8091C00085FFFCCF94
:107FA0009093C60008958091C00087FFFCCF809118
:107FB000C00084FD01C0A8958091C6000895E0E648
:107FC000F0E098E1908380830895EDDF803219F02E
:107FD00088E0F5DFFFCF84E1DECF1F93182FE3DFCA
:107FE0001150E9F7F2DF1F91089580E0E8DFEE27F6
:047FF000FF270994CA
:027FFE00040479
:00000001FF
